{
  "_format": "hh-sol-artifact-1",
  "contractName": "BitRWABridge",
  "sourceName": "contracts/BitRWABridge.sol",
  "abi": [
    {
      "inputs": [
        {
          "internalType": "address",
          "name": "_ccipRouter",
          "type": "address"
        },
        {
          "internalType": "uint64",
          "name": "_rootstockSelector",
          "type": "uint64"
        },
        {
          "internalType": "address",
          "name": "_ondoToken",
          "type": "address"
        },
        {
          "internalType": "address",
          "name": "_ethToOndoPriceFeed",
          "type": "address"
        },
        {
          "internalType": "address",
          "name": "_rootstockAdapter",
          "type": "address"
        },
        {
          "internalType": "address",
          "name": "initialOwner",
          "type": "address"
        }
      ],
      "stateMutability": "nonpayable",
      "type": "constructor"
    },
    {
      "inputs": [],
      "name": "InsufficientBalance",
      "type": "error"
    },
    {
      "inputs": [],
      "name": "InvalidPriceFeed",
      "type": "error"
    },
    {
      "inputs": [
        {
          "internalType": "address",
          "name": "router",
          "type": "address"
        }
      ],
      "name": "InvalidRouter",
      "type": "error"
    },
    {
      "inputs": [
        {
          "internalType": "address",
          "name": "owner",
          "type": "address"
        }
      ],
      "name": "OwnableInvalidOwner",
      "type": "error"
    },
    {
      "inputs": [
        {
          "internalType": "address",
          "name": "account",
          "type": "address"
        }
      ],
      "name": "OwnableUnauthorizedAccount",
      "type": "error"
    },
    {
      "inputs": [
        {
          "internalType": "address",
          "name": "token",
          "type": "address"
        }
      ],
      "name": "SafeERC20FailedOperation",
      "type": "error"
    },
    {
      "anonymous": false,
      "inputs": [
        {
          "indexed": true,
          "internalType": "address",
          "name": "user",
          "type": "address"
        },
        {
          "indexed": false,
          "internalType": "uint256",
          "name": "ondoAmount",
          "type": "uint256"
        },
        {
          "indexed": false,
          "internalType": "uint256",
          "name": "ethValue",
          "type": "uint256"
        },
        {
          "indexed": true,
          "internalType": "bytes32",
          "name": "ccipMessageId",
          "type": "bytes32"
        }
      ],
      "name": "AssetLocked",
      "type": "event"
    },
    {
      "anonymous": false,
      "inputs": [
        {
          "indexed": true,
          "internalType": "bytes32",
          "name": "originalMessageId",
          "type": "bytes32"
        },
        {
          "indexed": true,
          "internalType": "address",
          "name": "ethereumUser",
          "type": "address"
        },
        {
          "indexed": false,
          "internalType": "uint256",
          "name": "ondoAmountLocked",
          "type": "uint256"
        },
        {
          "indexed": false,
          "internalType": "uint256",
          "name": "ethValueAtLock",
          "type": "uint256"
        },
        {
          "indexed": false,
          "internalType": "uint256",
          "name": "rOndoAmountMinted",
          "type": "uint256"
        },
        {
          "indexed": false,
          "internalType": "uint256",
          "name": "rbtcValueAtMint",
          "type": "uint256"
        }
      ],
      "name": "BridgeCompleted",
      "type": "event"
    },
    {
      "anonymous": false,
      "inputs": [
        {
          "indexed": true,
          "internalType": "address",
          "name": "user",
          "type": "address"
        },
        {
          "indexed": false,
          "internalType": "bool",
          "name": "isCompliant",
          "type": "bool"
        }
      ],
      "name": "ComplianceStatusUpdated",
      "type": "event"
    },
    {
      "anonymous": false,
      "inputs": [
        {
          "indexed": true,
          "internalType": "address",
          "name": "previousOwner",
          "type": "address"
        },
        {
          "indexed": true,
          "internalType": "address",
          "name": "newOwner",
          "type": "address"
        }
      ],
      "name": "OwnershipTransferred",
      "type": "event"
    },
    {
      "anonymous": false,
      "inputs": [
        {
          "indexed": true,
          "internalType": "address",
          "name": "user",
          "type": "address"
        },
        {
          "indexed": true,
          "internalType": "address",
          "name": "bitmaskWallet",
          "type": "address"
        }
      ],
      "name": "WalletBound",
      "type": "event"
    },
    {
      "inputs": [
        {
          "internalType": "address",
          "name": "bitmaskWallet",
          "type": "address"
        }
      ],
      "name": "bindBitmaskWallet",
      "outputs": [],
      "stateMutability": "nonpayable",
      "type": "function"
    },
    {
      "inputs": [
        {
          "internalType": "address",
          "name": "",
          "type": "address"
        }
      ],
      "name": "bitmaskWalletBindings",
      "outputs": [
        {
          "internalType": "address",
          "name": "",
          "type": "address"
        }
      ],
      "stateMutability": "view",
      "type": "function"
    },
    {
      "inputs": [
        {
          "components": [
            {
              "internalType": "bytes32",
              "name": "messageId",
              "type": "bytes32"
            },
            {
              "internalType": "uint64",
              "name": "sourceChainSelector",
              "type": "uint64"
            },
            {
              "internalType": "bytes",
              "name": "sender",
              "type": "bytes"
            },
            {
              "internalType": "bytes",
              "name": "data",
              "type": "bytes"
            },
            {
              "components": [
                {
                  "internalType": "address",
                  "name": "token",
                  "type": "address"
                },
                {
                  "internalType": "uint256",
                  "name": "amount",
                  "type": "uint256"
                }
              ],
              "internalType": "struct Client.EVMTokenAmount[]",
              "name": "destTokenAmounts",
              "type": "tuple[]"
            }
          ],
          "internalType": "struct Client.Any2EVMMessage",
          "name": "message",
          "type": "tuple"
        }
      ],
      "name": "ccipReceive",
      "outputs": [],
      "stateMutability": "nonpayable",
      "type": "function"
    },
    {
      "inputs": [],
      "name": "ccipRouter",
      "outputs": [
        {
          "internalType": "contract IRouterClient",
          "name": "",
          "type": "address"
        }
      ],
      "stateMutability": "view",
      "type": "function"
    },
    {
      "inputs": [],
      "name": "ethToOndoPriceFeed",
      "outputs": [
        {
          "internalType": "contract AggregatorV3Interface",
          "name": "",
          "type": "address"
        }
      ],
      "stateMutability": "view",
      "type": "function"
    },
    {
      "inputs": [
        {
          "internalType": "address",
          "name": "",
          "type": "address"
        }
      ],
      "name": "ethToRootstockAddress",
      "outputs": [
        {
          "internalType": "address",
          "name": "",
          "type": "address"
        }
      ],
      "stateMutability": "view",
      "type": "function"
    },
    {
      "inputs": [
        {
          "internalType": "uint256",
          "name": "ondoAmount",
          "type": "uint256"
        }
      ],
      "name": "getOndoToEthRatio",
      "outputs": [
        {
          "internalType": "uint256",
          "name": "ethValue",
          "type": "uint256"
        }
      ],
      "stateMutability": "view",
      "type": "function"
    },
    {
      "inputs": [],
      "name": "getRouter",
      "outputs": [
        {
          "internalType": "address",
          "name": "",
          "type": "address"
        }
      ],
      "stateMutability": "view",
      "type": "function"
    },
    {
      "inputs": [
        {
          "internalType": "address",
          "name": "",
          "type": "address"
        }
      ],
      "name": "isCompliant",
      "outputs": [
        {
          "internalType": "bool",
          "name": "",
          "type": "bool"
        }
      ],
      "stateMutability": "view",
      "type": "function"
    },
    {
      "inputs": [
        {
          "internalType": "uint256",
          "name": "ondoAmount",
          "type": "uint256"
        }
      ],
      "name": "lockAndBridge",
      "outputs": [],
      "stateMutability": "payable",
      "type": "function"
    },
    {
      "inputs": [
        {
          "internalType": "address",
          "name": "",
          "type": "address"
        }
      ],
      "name": "lockedBalances",
      "outputs": [
        {
          "internalType": "uint256",
          "name": "",
          "type": "uint256"
        }
      ],
      "stateMutability": "view",
      "type": "function"
    },
    {
      "inputs": [],
      "name": "ondoToken",
      "outputs": [
        {
          "internalType": "contract IERC20",
          "name": "",
          "type": "address"
        }
      ],
      "stateMutability": "view",
      "type": "function"
    },
    {
      "inputs": [
        {
          "internalType": "bytes32",
          "name": "",
          "type": "bytes32"
        }
      ],
      "name": "originalSender",
      "outputs": [
        {
          "internalType": "address",
          "name": "",
          "type": "address"
        }
      ],
      "stateMutability": "view",
      "type": "function"
    },
    {
      "inputs": [],
      "name": "owner",
      "outputs": [
        {
          "internalType": "address",
          "name": "",
          "type": "address"
        }
      ],
      "stateMutability": "view",
      "type": "function"
    },
    {
      "inputs": [],
      "name": "rOndoToken",
      "outputs": [
        {
          "internalType": "address",
          "name": "",
          "type": "address"
        }
      ],
      "stateMutability": "view",
      "type": "function"
    },
    {
      "inputs": [],
      "name": "rbtcToROndoPriceFeed",
      "outputs": [
        {
          "internalType": "contract AggregatorV3Interface",
          "name": "",
          "type": "address"
        }
      ],
      "stateMutability": "view",
      "type": "function"
    },
    {
      "inputs": [],
      "name": "renounceOwnership",
      "outputs": [],
      "stateMutability": "nonpayable",
      "type": "function"
    },
    {
      "inputs": [],
      "name": "rootstockAdapter",
      "outputs": [
        {
          "internalType": "address",
          "name": "",
          "type": "address"
        }
      ],
      "stateMutability": "view",
      "type": "function"
    },
    {
      "inputs": [],
      "name": "rootstockChainSelector",
      "outputs": [
        {
          "internalType": "uint64",
          "name": "",
          "type": "uint64"
        }
      ],
      "stateMutability": "view",
      "type": "function"
    },
    {
      "inputs": [
        {
          "internalType": "address",
          "name": "user",
          "type": "address"
        },
        {
          "internalType": "bool",
          "name": "approved",
          "type": "bool"
        }
      ],
      "name": "setCompliance",
      "outputs": [],
      "stateMutability": "nonpayable",
      "type": "function"
    },
    {
      "inputs": [
        {
          "internalType": "address",
          "name": "_ethToOndoPriceFeed",
          "type": "address"
        },
        {
          "internalType": "address",
          "name": "_rbtcToROndoPriceFeed",
          "type": "address"
        }
      ],
      "name": "setPriceFeeds",
      "outputs": [],
      "stateMutability": "nonpayable",
      "type": "function"
    },
    {
      "inputs": [
        {
          "internalType": "address",
          "name": "_rOndoToken",
          "type": "address"
        }
      ],
      "name": "setROndoToken",
      "outputs": [],
      "stateMutability": "nonpayable",
      "type": "function"
    },
    {
      "inputs": [
        {
          "internalType": "bytes4",
          "name": "interfaceId",
          "type": "bytes4"
        }
      ],
      "name": "supportsInterface",
      "outputs": [
        {
          "internalType": "bool",
          "name": "",
          "type": "bool"
        }
      ],
      "stateMutability": "view",
      "type": "function"
    },
    {
      "inputs": [
        {
          "internalType": "address",
          "name": "newOwner",
          "type": "address"
        }
      ],
      "name": "transferOwnership",
      "outputs": [],
      "stateMutability": "nonpayable",
      "type": "function"
    }
  ],
  "bytecode": "0x61010060405234801561001157600080fd5b50604051612e1a380380612e1a833981810160405281019061003391906103d6565b8086600073ffffffffffffffffffffffffffffffffffffffff168173ffffffffffffffffffffffffffffffffffffffff16036100a75760006040517fd7f7333400000000000000000000000000000000000000000000000000000000815260040161009e9190610472565b60405180910390fd5b8073ffffffffffffffffffffffffffffffffffffffff1660808173ffffffffffffffffffffffffffffffffffffffff168152505050600073ffffffffffffffffffffffffffffffffffffffff168173ffffffffffffffffffffffffffffffffffffffff160361014e5760006040517f1e4fbdf70000000000000000000000000000000000000000000000000000000081526004016101459190610472565b60405180910390fd5b61015d8161026f60201b60201c565b508573ffffffffffffffffffffffffffffffffffffffff1660a08173ffffffffffffffffffffffffffffffffffffffff16815250508467ffffffffffffffff1660c08167ffffffffffffffff16815250508373ffffffffffffffffffffffffffffffffffffffff1660e08173ffffffffffffffffffffffffffffffffffffffff168152505082600360006101000a81548173ffffffffffffffffffffffffffffffffffffffff021916908373ffffffffffffffffffffffffffffffffffffffff16021790555081600160006101000a81548173ffffffffffffffffffffffffffffffffffffffff021916908373ffffffffffffffffffffffffffffffffffffffff16021790555050505050505061048d565b60008060009054906101000a900473ffffffffffffffffffffffffffffffffffffffff169050816000806101000a81548173ffffffffffffffffffffffffffffffffffffffff021916908373ffffffffffffffffffffffffffffffffffffffff1602179055508173ffffffffffffffffffffffffffffffffffffffff168173ffffffffffffffffffffffffffffffffffffffff167f8be0079c531659141344cd1fd0a4f28419497f9722a3daafe3b4186f6b6457e060405160405180910390a35050565b600080fd5b600073ffffffffffffffffffffffffffffffffffffffff82169050919050565b600061036382610338565b9050919050565b61037381610358565b811461037e57600080fd5b50565b6000815190506103908161036a565b92915050565b600067ffffffffffffffff82169050919050565b6103b381610396565b81146103be57600080fd5b50565b6000815190506103d0816103aa565b92915050565b60008060008060008060c087890312156103f3576103f2610333565b5b600061040189828a01610381565b965050602061041289828a016103c1565b955050604061042389828a01610381565b945050606061043489828a01610381565b935050608061044589828a01610381565b92505060a061045689828a01610381565b9150509295509295509295565b61046c81610358565b82525050565b60006020820190506104876000830184610463565b92915050565b60805160a05160c05160e05161292a6104f06000396000818161072101528181610d520152610e37015260008181610ae001528181611025015261112901526000818161074501528181610fe901526110ec01526000610b4c015261292a6000f3fe60806040526004361061014b5760003560e01c80638da5cb5b116100b6578063cbaa63301161006f578063cbaa6330146104a6578063cdbc7119146104e3578063de585ef61461050c578063ef36073114610528578063f2fde38b14610553578063f7d611701461057c5761014b565b80638da5cb5b146103805780639b80eafe146103ab578063a200e5d0146103d6578063a5bd67a114610413578063b0f479a11461043e578063be12ab7f146104695761014b565b8063345290851161010857806334529085146102745780633eddd5ec1461029d578063715018a6146102da5780637de69af7146102f1578063843096e51461031a57806385572ffb146103575761014b565b806301ffc9a7146101505780630483a7f61461018d578063068f158d146101ca5780630a5f5b08146101f35780630de229841461021e57806317d15f7614610249575b600080fd5b34801561015c57600080fd5b506101776004803603810190610172919061187c565b6105a7565b60405161018491906118c4565b60405180910390f35b34801561019957600080fd5b506101b460048036038101906101af919061193d565b610679565b6040516101c19190611983565b60405180910390f35b3480156101d657600080fd5b506101f160048036038101906101ec919061199e565b610691565b005b3480156101ff57600080fd5b5061020861071f565b6040516102159190611a3d565b60405180910390f35b34801561022a57600080fd5b50610233610743565b6040516102409190611a79565b60405180910390f35b34801561025557600080fd5b5061025e610767565b60405161026b9190611aa3565b60405180910390f35b34801561028057600080fd5b5061029b6004803603810190610296919061193d565b61078d565b005b3480156102a957600080fd5b506102c460048036038101906102bf9190611af4565b610963565b6040516102d19190611aa3565b60405180910390f35b3480156102e657600080fd5b506102ef610996565b005b3480156102fd57600080fd5b506103186004803603810190610313919061193d565b6109aa565b005b34801561032657600080fd5b50610341600480360381019061033c919061193d565b6109f6565b60405161034e9190611aa3565b60405180910390f35b34801561036357600080fd5b5061037e60048036038101906103799190611b45565b610a29565b005b34801561038c57600080fd5b50610395610ab5565b6040516103a29190611aa3565b60405180910390f35b3480156103b757600080fd5b506103c0610ade565b6040516103cd9190611bb1565b60405180910390f35b3480156103e257600080fd5b506103fd60048036038101906103f8919061193d565b610b02565b60405161040a91906118c4565b60405180910390f35b34801561041f57600080fd5b50610428610b22565b6040516104359190611bed565b60405180910390f35b34801561044a57600080fd5b50610453610b48565b6040516104609190611aa3565b60405180910390f35b34801561047557600080fd5b50610490600480360381019061048b919061193d565b610b70565b60405161049d9190611aa3565b60405180910390f35b3480156104b257600080fd5b506104cd60048036038101906104c89190611c34565b610ba3565b6040516104da9190611983565b60405180910390f35b3480156104ef57600080fd5b5061050a60048036038101906105059190611c8d565b610c9e565b005b61052660048036038101906105219190611c34565b610d4f565b005b34801561053457600080fd5b5061053d611255565b60405161054a9190611aa3565b60405180910390f35b34801561055f57600080fd5b5061057a6004803603810190610575919061193d565b61127b565b005b34801561058857600080fd5b50610591611301565b60405161059e9190611bed565b60405180910390f35b60007f85572ffb000000000000000000000000000000000000000000000000000000007bffffffffffffffffffffffffffffffffffffffffffffffffffffffff1916827bffffffffffffffffffffffffffffffffffffffffffffffffffffffff1916148061067257507f01ffc9a7000000000000000000000000000000000000000000000000000000007bffffffffffffffffffffffffffffffffffffffffffffffffffffffff1916827bffffffffffffffffffffffffffffffffffffffffffffffffffffffff1916145b9050919050565b60076020528060005260406000206000915090505481565b610699611327565b81600360006101000a81548173ffffffffffffffffffffffffffffffffffffffff021916908373ffffffffffffffffffffffffffffffffffffffff16021790555080600460006101000a81548173ffffffffffffffffffffffffffffffffffffffff021916908373ffffffffffffffffffffffffffffffffffffffff1602179055505050565b7f000000000000000000000000000000000000000000000000000000000000000081565b7f000000000000000000000000000000000000000000000000000000000000000081565b600160009054906101000a900473ffffffffffffffffffffffffffffffffffffffff1681565b600073ffffffffffffffffffffffffffffffffffffffff168173ffffffffffffffffffffffffffffffffffffffff16036107fc576040517f08c379a00000000000000000000000000000000000000000000000000000000081526004016107f390611d2a565b60405180910390fd5b600560003373ffffffffffffffffffffffffffffffffffffffff1673ffffffffffffffffffffffffffffffffffffffff16815260200190815260200160002060009054906101000a900460ff16610888576040517f08c379a000000000000000000000000000000000000000000000000000000000815260040161087f90611d96565b60405180910390fd5b80600960003373ffffffffffffffffffffffffffffffffffffffff1673ffffffffffffffffffffffffffffffffffffffff16815260200190815260200160002060006101000a81548173ffffffffffffffffffffffffffffffffffffffff021916908373ffffffffffffffffffffffffffffffffffffffff1602179055508073ffffffffffffffffffffffffffffffffffffffff163373ffffffffffffffffffffffffffffffffffffffff167f974c0ff4b6f09b6d9da030703a50820a9649d9310923e7450725d3495cb0ec4d60405160405180910390a350565b60066020528060005260406000206000915054906101000a900473ffffffffffffffffffffffffffffffffffffffff1681565b61099e611327565b6109a860006113ae565b565b6109b2611327565b80600260006101000a81548173ffffffffffffffffffffffffffffffffffffffff021916908373ffffffffffffffffffffffffffffffffffffffff16021790555050565b60086020528060005260406000206000915054906101000a900473ffffffffffffffffffffffffffffffffffffffff1681565b610a31610b48565b73ffffffffffffffffffffffffffffffffffffffff163373ffffffffffffffffffffffffffffffffffffffff1614610aa057336040517fd7f73334000000000000000000000000000000000000000000000000000000008152600401610a979190611aa3565b60405180910390fd5b610ab281610aad9061212a565b611472565b50565b60008060009054906101000a900473ffffffffffffffffffffffffffffffffffffffff16905090565b7f000000000000000000000000000000000000000000000000000000000000000081565b60056020528060005260406000206000915054906101000a900460ff1681565b600360009054906101000a900473ffffffffffffffffffffffffffffffffffffffff1681565b60007f0000000000000000000000000000000000000000000000000000000000000000905090565b60096020528060005260406000206000915054906101000a900473ffffffffffffffffffffffffffffffffffffffff1681565b600080600360009054906101000a900473ffffffffffffffffffffffffffffffffffffffff1673ffffffffffffffffffffffffffffffffffffffff1663feaf968c6040518163ffffffff1660e01b815260040160a060405180830381865afa158015610c13573d6000803e3d6000fd5b505050506040513d601f19601f82011682018060405250810190610c3791906121ca565b50505091505060008113610c77576040517f52cc3f7d00000000000000000000000000000000000000000000000000000000815260040160405180910390fd5b670de0b6b3a76400008184610c8c9190612274565b610c9691906122e5565b915050919050565b610ca6611327565b80600560008473ffffffffffffffffffffffffffffffffffffffff1673ffffffffffffffffffffffffffffffffffffffff16815260200190815260200160002060006101000a81548160ff0219169083151502179055508173ffffffffffffffffffffffffffffffffffffffff167f909a12cd92d75bbce1196bad210933067692125b9fe9c16ea22632a8ff90fd0482604051610d4391906118c4565b60405180910390a25050565b807f000000000000000000000000000000000000000000000000000000000000000073ffffffffffffffffffffffffffffffffffffffff166370a08231336040518263ffffffff1660e01b8152600401610da99190611aa3565b602060405180830381865afa158015610dc6573d6000803e3d6000fd5b505050506040513d601f19601f82011682018060405250810190610dea9190612316565b1015610e22576040517ff4d678b800000000000000000000000000000000000000000000000000000000815260040160405180910390fd5b6000610e2d82610ba3565b9050610e7c3330847f000000000000000000000000000000000000000000000000000000000000000073ffffffffffffffffffffffffffffffffffffffff16611635909392919063ffffffff16565b81600760003373ffffffffffffffffffffffffffffffffffffffff1673ffffffffffffffffffffffffffffffffffffffff1681526020019081526020016000206000828254610ecb9190612343565b9250508190555060006040518060a00160405280600160009054906101000a900473ffffffffffffffffffffffffffffffffffffffff16604051602001610f129190611aa3565b6040516020818303038152906040528152602001338585604051602001610f3b93929190612377565b6040516020818303038152906040528152602001600067ffffffffffffffff811115610f6a57610f69611dcc565b5b604051908082528060200260200182016040528015610fa357816020015b610f906117e0565b815260200190600190039081610f885790505b508152602001600073ffffffffffffffffffffffffffffffffffffffff168152602001610fe06040518060200160405280620493e08152506116b7565b815250905060007f000000000000000000000000000000000000000000000000000000000000000073ffffffffffffffffffffffffffffffffffffffff166320487ded7f0000000000000000000000000000000000000000000000000000000000000000846040518363ffffffff1660e01b81526004016110629291906125b4565b602060405180830381865afa15801561107f573d6000803e3d6000fd5b505050506040513d601f19601f820116820180604052508101906110a39190612316565b9050803410156110e8576040517f08c379a00000000000000000000000000000000000000000000000000000000081526004016110df90612630565b60405180910390fd5b60007f000000000000000000000000000000000000000000000000000000000000000073ffffffffffffffffffffffffffffffffffffffff166396f4e9f9837f0000000000000000000000000000000000000000000000000000000000000000866040518463ffffffff1660e01b81526004016111669291906125b4565b60206040518083038185885af1158015611184573d6000803e3d6000fd5b50505050506040513d601f19601f820116820180604052508101906111a99190612665565b9050336006600083815260200190815260200160002060006101000a81548173ffffffffffffffffffffffffffffffffffffffff021916908373ffffffffffffffffffffffffffffffffffffffff160217905550803373ffffffffffffffffffffffffffffffffffffffff167f03e8508f28ddf5ecfc2f3f6ed5da239fdcb129049a2115c7699e9ba478fe732d8787604051611246929190612692565b60405180910390a35050505050565b600260009054906101000a900473ffffffffffffffffffffffffffffffffffffffff1681565b611283611327565b600073ffffffffffffffffffffffffffffffffffffffff168173ffffffffffffffffffffffffffffffffffffffff16036112f55760006040517f1e4fbdf70000000000000000000000000000000000000000000000000000000081526004016112ec9190611aa3565b60405180910390fd5b6112fe816113ae565b50565b600460009054906101000a900473ffffffffffffffffffffffffffffffffffffffff1681565b61132f611736565b73ffffffffffffffffffffffffffffffffffffffff1661134d610ab5565b73ffffffffffffffffffffffffffffffffffffffff16146113ac57611370611736565b6040517f118cdaa70000000000000000000000000000000000000000000000000000000081526004016113a39190611aa3565b60405180910390fd5b565b60008060009054906101000a900473ffffffffffffffffffffffffffffffffffffffff169050816000806101000a81548173ffffffffffffffffffffffffffffffffffffffff021916908373ffffffffffffffffffffffffffffffffffffffff1602179055508173ffffffffffffffffffffffffffffffffffffffff168173ffffffffffffffffffffffffffffffffffffffff167f8be0079c531659141344cd1fd0a4f28419497f9722a3daafe3b4186f6b6457e060405160405180910390a35050565b6000816040015180602001905181019061148c91906126f9565b9050600160009054906101000a900473ffffffffffffffffffffffffffffffffffffffff1673ffffffffffffffffffffffffffffffffffffffff168173ffffffffffffffffffffffffffffffffffffffff161461151e576040517f08c379a000000000000000000000000000000000000000000000000000000000815260040161151590612772565b60405180910390fd5b6000806000806000866060015180602001905181019061153e9190612792565b9450945094509450945060006006600087815260200190815260200160002060009054906101000a900473ffffffffffffffffffffffffffffffffffffffff16905084600760008373ffffffffffffffffffffffffffffffffffffffff1673ffffffffffffffffffffffffffffffffffffffff16815260200190815260200160002060008282546115cf919061280d565b925050819055508073ffffffffffffffffffffffffffffffffffffffff16867f4f8854fbfa9f07dd428970baf368865f8cf2fff3f1a3ef05b34bfe1b82b82d17878787876040516116239493929190612841565b60405180910390a35050505050505050565b6116b1848573ffffffffffffffffffffffffffffffffffffffff166323b872dd86868660405160240161166a93929190612886565b604051602081830303815290604052915060e01b6020820180517bffffffffffffffffffffffffffffffffffffffffffffffffffffffff838183161783525050505061173e565b50505050565b60606397a657c960e01b826040516024016116d291906128d9565b604051602081830303815290604052907bffffffffffffffffffffffffffffffffffffffffffffffffffffffff19166020820180517bffffffffffffffffffffffffffffffffffffffffffffffffffffffff83818316178352505050509050919050565b600033905090565b600080602060008451602086016000885af180611761576040513d6000823e3d81fd5b3d92506000519150506000821461177c576001811415611798565b60008473ffffffffffffffffffffffffffffffffffffffff163b145b156117da57836040517f5274afe70000000000000000000000000000000000000000000000000000000081526004016117d19190611aa3565b60405180910390fd5b50505050565b6040518060400160405280600073ffffffffffffffffffffffffffffffffffffffff168152602001600081525090565b6000604051905090565b600080fd5b600080fd5b60007fffffffff0000000000000000000000000000000000000000000000000000000082169050919050565b61185981611824565b811461186457600080fd5b50565b60008135905061187681611850565b92915050565b6000602082840312156118925761189161181a565b5b60006118a084828501611867565b91505092915050565b60008115159050919050565b6118be816118a9565b82525050565b60006020820190506118d960008301846118b5565b92915050565b600073ffffffffffffffffffffffffffffffffffffffff82169050919050565b600061190a826118df565b9050919050565b61191a816118ff565b811461192557600080fd5b50565b60008135905061193781611911565b92915050565b6000602082840312156119535761195261181a565b5b600061196184828501611928565b91505092915050565b6000819050919050565b61197d8161196a565b82525050565b60006020820190506119986000830184611974565b92915050565b600080604083850312156119b5576119b461181a565b5b60006119c385828601611928565b92505060206119d485828601611928565b9150509250929050565b6000819050919050565b6000611a036119fe6119f9846118df565b6119de565b6118df565b9050919050565b6000611a15826119e8565b9050919050565b6000611a2782611a0a565b9050919050565b611a3781611a1c565b82525050565b6000602082019050611a526000830184611a2e565b92915050565b6000611a6382611a0a565b9050919050565b611a7381611a58565b82525050565b6000602082019050611a8e6000830184611a6a565b92915050565b611a9d816118ff565b82525050565b6000602082019050611ab86000830184611a94565b92915050565b6000819050919050565b611ad181611abe565b8114611adc57600080fd5b50565b600081359050611aee81611ac8565b92915050565b600060208284031215611b0a57611b0961181a565b5b6000611b1884828501611adf565b91505092915050565b600080fd5b600060a08284031215611b3c57611b3b611b21565b5b81905092915050565b600060208284031215611b5b57611b5a61181a565b5b600082013567ffffffffffffffff811115611b7957611b7861181f565b5b611b8584828501611b26565b91505092915050565b600067ffffffffffffffff82169050919050565b611bab81611b8e565b82525050565b6000602082019050611bc66000830184611ba2565b92915050565b6000611bd782611a0a565b9050919050565b611be781611bcc565b82525050565b6000602082019050611c026000830184611bde565b92915050565b611c118161196a565b8114611c1c57600080fd5b50565b600081359050611c2e81611c08565b92915050565b600060208284031215611c4a57611c4961181a565b5b6000611c5884828501611c1f565b91505092915050565b611c6a816118a9565b8114611c7557600080fd5b50565b600081359050611c8781611c61565b92915050565b60008060408385031215611ca457611ca361181a565b5b6000611cb285828601611928565b9250506020611cc385828601611c78565b9150509250929050565b600082825260208201905092915050565b7f496e76616c69642077616c6c6574000000000000000000000000000000000000600082015250565b6000611d14600e83611ccd565b9150611d1f82611cde565b602082019050919050565b60006020820190508181036000830152611d4381611d07565b9050919050565b7f55736572206e6f7420636f6d706c69616e740000000000000000000000000000600082015250565b6000611d80601283611ccd565b9150611d8b82611d4a565b602082019050919050565b60006020820190508181036000830152611daf81611d73565b9050919050565b600080fd5b6000601f19601f8301169050919050565b7f4e487b7100000000000000000000000000000000000000000000000000000000600052604160045260246000fd5b611e0482611dbb565b810181811067ffffffffffffffff82111715611e2357611e22611dcc565b5b80604052505050565b6000611e36611810565b9050611e428282611dfb565b919050565b600080fd5b611e5581611b8e565b8114611e6057600080fd5b50565b600081359050611e7281611e4c565b92915050565b600080fd5b600080fd5b600067ffffffffffffffff821115611e9d57611e9c611dcc565b5b611ea682611dbb565b9050602081019050919050565b82818337600083830152505050565b6000611ed5611ed084611e82565b611e2c565b905082815260208101848484011115611ef157611ef0611e7d565b5b611efc848285611eb3565b509392505050565b600082601f830112611f1957611f18611e78565b5b8135611f29848260208601611ec2565b91505092915050565b600067ffffffffffffffff821115611f4d57611f4c611dcc565b5b602082029050602081019050919050565b600080fd5b600060408284031215611f7957611f78611db6565b5b611f836040611e2c565b90506000611f9384828501611928565b6000830152506020611fa784828501611c1f565b60208301525092915050565b6000611fc6611fc184611f32565b611e2c565b90508083825260208201905060408402830185811115611fe957611fe8611f5e565b5b835b818110156120125780611ffe8882611f63565b845260208401935050604081019050611feb565b5050509392505050565b600082601f83011261203157612030611e78565b5b8135612041848260208601611fb3565b91505092915050565b600060a082840312156120605761205f611db6565b5b61206a60a0611e2c565b9050600061207a84828501611adf565b600083015250602061208e84828501611e63565b602083015250604082013567ffffffffffffffff8111156120b2576120b1611e47565b5b6120be84828501611f04565b604083015250606082013567ffffffffffffffff8111156120e2576120e1611e47565b5b6120ee84828501611f04565b606083015250608082013567ffffffffffffffff81111561211257612111611e47565b5b61211e8482850161201c565b60808301525092915050565b6000612136368361204a565b9050919050565b600069ffffffffffffffffffff82169050919050565b61215c8161213d565b811461216757600080fd5b50565b60008151905061217981612153565b92915050565b6000819050919050565b6121928161217f565b811461219d57600080fd5b50565b6000815190506121af81612189565b92915050565b6000815190506121c481611c08565b92915050565b600080600080600060a086880312156121e6576121e561181a565b5b60006121f48882890161216a565b9550506020612205888289016121a0565b9450506040612216888289016121b5565b9350506060612227888289016121b5565b92505060806122388882890161216a565b9150509295509295909350565b7f4e487b7100000000000000000000000000000000000000000000000000000000600052601160045260246000fd5b600061227f8261196a565b915061228a8361196a565b92508282026122988161196a565b915082820484148315176122af576122ae612245565b5b5092915050565b7f4e487b7100000000000000000000000000000000000000000000000000000000600052601260045260246000fd5b60006122f08261196a565b91506122fb8361196a565b92508261230b5761230a6122b6565b5b828204905092915050565b60006020828403121561232c5761232b61181a565b5b600061233a848285016121b5565b91505092915050565b600061234e8261196a565b91506123598361196a565b925082820190508082111561237157612370612245565b5b92915050565b600060608201905061238c6000830186611a94565b6123996020830185611974565b6123a66040830184611974565b949350505050565b600081519050919050565b600082825260208201905092915050565b60005b838110156123e85780820151818401526020810190506123cd565b60008484015250505050565b60006123ff826123ae565b61240981856123b9565b93506124198185602086016123ca565b61242281611dbb565b840191505092915050565b600081519050919050565b600082825260208201905092915050565b6000819050602082019050919050565b612462816118ff565b82525050565b6124718161196a565b82525050565b60408201600082015161248d6000850182612459565b5060208201516124a06020850182612468565b50505050565b60006124b28383612477565b60408301905092915050565b6000602082019050919050565b60006124d68261242d565b6124e08185612438565b93506124eb83612449565b8060005b8381101561251c57815161250388826124a6565b975061250e836124be565b9250506001810190506124ef565b5085935050505092915050565b600060a083016000830151848203600086015261254682826123f4565b9150506020830151848203602086015261256082826123f4565b9150506040830151848203604086015261257a82826124cb565b915050606083015161258f6060860182612459565b50608083015184820360808601526125a782826123f4565b9150508091505092915050565b60006040820190506125c96000830185611ba2565b81810360208301526125db8184612529565b90509392505050565b7f496e73756666696369656e742066656500000000000000000000000000000000600082015250565b600061261a601083611ccd565b9150612625826125e4565b602082019050919050565b600060208201905081810360008301526126498161260d565b9050919050565b60008151905061265f81611ac8565b92915050565b60006020828403121561267b5761267a61181a565b5b600061268984828501612650565b91505092915050565b60006040820190506126a76000830185611974565b6126b46020830184611974565b9392505050565b60006126c6826118df565b9050919050565b6126d6816126bb565b81146126e157600080fd5b50565b6000815190506126f3816126cd565b92915050565b60006020828403121561270f5761270e61181a565b5b600061271d848285016126e4565b91505092915050565b7f556e617574686f72697a65640000000000000000000000000000000000000000600082015250565b600061275c600c83611ccd565b915061276782612726565b602082019050919050565b6000602082019050818103600083015261278b8161274f565b9050919050565b600080600080600060a086880312156127ae576127ad61181a565b5b60006127bc88828901612650565b95505060206127cd888289016121b5565b94505060406127de888289016121b5565b93505060606127ef888289016121b5565b9250506080612800888289016121b5565b9150509295509295909350565b60006128188261196a565b91506128238361196a565b925082820390508181111561283b5761283a612245565b5b92915050565b60006080820190506128566000830187611974565b6128636020830186611974565b6128706040830185611974565b61287d6060830184611974565b95945050505050565b600060608201905061289b6000830186611a94565b6128a86020830185611a94565b6128b56040830184611974565b949350505050565b6020820160008201516128d36000850182612468565b50505050565b60006020820190506128ee60008301846128bd565b9291505056fea2646970667358221220d3a6f7b33508e059342a2a5f0e7fafa1ac058b6cfe5b95c13ea52882e0bac79064736f6c634300081c0033",
  "linkReferences": {},
  "deployedLinkReferences": {}
}