{
  "_format": "hh-sol-artifact-1",
  "contractName": "BitRWABridge",
  "sourceName": "contracts/BitRWABridge.sol",
  "abi": [
    {
      "inputs": [
        {
          "internalType": "address",
          "name": "_ccipRouter",
          "type": "address"
        },
        {
          "internalType": "uint64",
          "name": "_rootstockSelector",
          "type": "uint64"
        },
        {
          "internalType": "address",
          "name": "_ondoRWAToken",
          "type": "address"
        },
        {
          "internalType": "address",
          "name": "_priceFeed",
          "type": "address"
        },
        {
          "internalType": "address",
          "name": "_rwaHub",
          "type": "address"
        },
        {
          "internalType": "address",
          "name": "_destinationBridgeAdapter",
          "type": "address"
        },
        {
          "internalType": "address",
          "name": "initialOwner",
          "type": "address"
        }
      ],
      "stateMutability": "nonpayable",
      "type": "constructor"
    },
    {
      "inputs": [],
      "name": "InsufficientFeeTokenAmount",
      "type": "error"
    },
    {
      "inputs": [],
      "name": "InvalidAmount",
      "type": "error"
    },
    {
      "inputs": [
        {
          "internalType": "address",
          "name": "owner",
          "type": "address"
        }
      ],
      "name": "OwnableInvalidOwner",
      "type": "error"
    },
    {
      "inputs": [
        {
          "internalType": "address",
          "name": "account",
          "type": "address"
        }
      ],
      "name": "OwnableUnauthorizedAccount",
      "type": "error"
    },
    {
      "inputs": [
        {
          "internalType": "address",
          "name": "token",
          "type": "address"
        }
      ],
      "name": "SafeERC20FailedOperation",
      "type": "error"
    },
    {
      "inputs": [],
      "name": "UserNotCompliant",
      "type": "error"
    },
    {
      "inputs": [],
      "name": "WalletNotBound",
      "type": "error"
    },
    {
      "anonymous": false,
      "inputs": [
        {
          "indexed": true,
          "internalType": "address",
          "name": "user",
          "type": "address"
        },
        {
          "indexed": false,
          "internalType": "uint256",
          "name": "amount",
          "type": "uint256"
        },
        {
          "indexed": true,
          "internalType": "bytes32",
          "name": "ccipMessageId",
          "type": "bytes32"
        }
      ],
      "name": "AssetLocked",
      "type": "event"
    },
    {
      "anonymous": false,
      "inputs": [
        {
          "indexed": true,
          "internalType": "bytes32",
          "name": "ccipMessageId",
          "type": "bytes32"
        },
        {
          "indexed": true,
          "internalType": "address",
          "name": "bitmaskWallet",
          "type": "address"
        },
        {
          "indexed": false,
          "internalType": "uint256",
          "name": "mintedAmount",
          "type": "uint256"
        }
      ],
      "name": "BridgeCompleted",
      "type": "event"
    },
    {
      "anonymous": false,
      "inputs": [
        {
          "indexed": true,
          "internalType": "address",
          "name": "user",
          "type": "address"
        },
        {
          "indexed": false,
          "internalType": "bool",
          "name": "isCompliant",
          "type": "bool"
        }
      ],
      "name": "ComplianceStatusUpdated",
      "type": "event"
    },
    {
      "anonymous": false,
      "inputs": [
        {
          "indexed": true,
          "internalType": "address",
          "name": "previousOwner",
          "type": "address"
        },
        {
          "indexed": true,
          "internalType": "address",
          "name": "newOwner",
          "type": "address"
        }
      ],
      "name": "OwnershipTransferred",
      "type": "event"
    },
    {
      "anonymous": false,
      "inputs": [
        {
          "indexed": true,
          "internalType": "address",
          "name": "user",
          "type": "address"
        },
        {
          "indexed": true,
          "internalType": "address",
          "name": "bitmaskWallet",
          "type": "address"
        }
      ],
      "name": "WalletBound",
      "type": "event"
    },
    {
      "inputs": [
        {
          "internalType": "address",
          "name": "bitmaskWallet",
          "type": "address"
        }
      ],
      "name": "bindBitmaskWallet",
      "outputs": [],
      "stateMutability": "nonpayable",
      "type": "function"
    },
    {
      "inputs": [
        {
          "internalType": "address",
          "name": "",
          "type": "address"
        }
      ],
      "name": "bitmaskWalletBindings",
      "outputs": [
        {
          "internalType": "address",
          "name": "",
          "type": "address"
        }
      ],
      "stateMutability": "view",
      "type": "function"
    },
    {
      "inputs": [],
      "name": "ccipRouter",
      "outputs": [
        {
          "internalType": "contract IRouterClient",
          "name": "",
          "type": "address"
        }
      ],
      "stateMutability": "view",
      "type": "function"
    },
    {
      "inputs": [
        {
          "internalType": "address",
          "name": "user",
          "type": "address"
        }
      ],
      "name": "checkAllowance",
      "outputs": [
        {
          "internalType": "uint256",
          "name": "",
          "type": "uint256"
        }
      ],
      "stateMutability": "view",
      "type": "function"
    },
    {
      "inputs": [
        {
          "internalType": "bytes32",
          "name": "originalMessageId",
          "type": "bytes32"
        },
        {
          "internalType": "address",
          "name": "bitmaskWallet",
          "type": "address"
        },
        {
          "internalType": "uint256",
          "name": "mintedAmount",
          "type": "uint256"
        }
      ],
      "name": "completeBridge",
      "outputs": [],
      "stateMutability": "nonpayable",
      "type": "function"
    },
    {
      "inputs": [],
      "name": "destinationBridgeAdapter",
      "outputs": [
        {
          "internalType": "address",
          "name": "",
          "type": "address"
        }
      ],
      "stateMutability": "view",
      "type": "function"
    },
    {
      "inputs": [
        {
          "internalType": "uint256",
          "name": "amount",
          "type": "uint256"
        },
        {
          "internalType": "address",
          "name": "bitmaskWallet",
          "type": "address"
        },
        {
          "internalType": "address",
          "name": "ethUser",
          "type": "address"
        }
      ],
      "name": "estimateFee",
      "outputs": [
        {
          "internalType": "uint256",
          "name": "",
          "type": "uint256"
        }
      ],
      "stateMutability": "view",
      "type": "function"
    },
    {
      "inputs": [
        {
          "internalType": "address",
          "name": "",
          "type": "address"
        }
      ],
      "name": "isCompliant",
      "outputs": [
        {
          "internalType": "bool",
          "name": "",
          "type": "bool"
        }
      ],
      "stateMutability": "view",
      "type": "function"
    },
    {
      "inputs": [
        {
          "internalType": "uint256",
          "name": "amount",
          "type": "uint256"
        },
        {
          "internalType": "address",
          "name": "bitmaskWallet",
          "type": "address"
        }
      ],
      "name": "lockAndBridge",
      "outputs": [],
      "stateMutability": "payable",
      "type": "function"
    },
    {
      "inputs": [],
      "name": "ondoRWAToken",
      "outputs": [
        {
          "internalType": "contract IERC20",
          "name": "",
          "type": "address"
        }
      ],
      "stateMutability": "view",
      "type": "function"
    },
    {
      "inputs": [],
      "name": "owner",
      "outputs": [
        {
          "internalType": "address",
          "name": "",
          "type": "address"
        }
      ],
      "stateMutability": "view",
      "type": "function"
    },
    {
      "inputs": [],
      "name": "priceFeed",
      "outputs": [
        {
          "internalType": "contract AggregatorV3Interface",
          "name": "",
          "type": "address"
        }
      ],
      "stateMutability": "view",
      "type": "function"
    },
    {
      "inputs": [],
      "name": "renounceOwnership",
      "outputs": [],
      "stateMutability": "nonpayable",
      "type": "function"
    },
    {
      "inputs": [],
      "name": "rootstockChainSelector",
      "outputs": [
        {
          "internalType": "uint64",
          "name": "",
          "type": "uint64"
        }
      ],
      "stateMutability": "view",
      "type": "function"
    },
    {
      "inputs": [],
      "name": "rwaHub",
      "outputs": [
        {
          "internalType": "contract IRWAHub",
          "name": "",
          "type": "address"
        }
      ],
      "stateMutability": "view",
      "type": "function"
    },
    {
      "inputs": [
        {
          "internalType": "address",
          "name": "user",
          "type": "address"
        },
        {
          "internalType": "bool",
          "name": "approved",
          "type": "bool"
        }
      ],
      "name": "setCompliance",
      "outputs": [],
      "stateMutability": "nonpayable",
      "type": "function"
    },
    {
      "inputs": [
        {
          "internalType": "address",
          "name": "_rwaHub",
          "type": "address"
        }
      ],
      "name": "setRwaHub",
      "outputs": [],
      "stateMutability": "nonpayable",
      "type": "function"
    },
    {
      "inputs": [
        {
          "internalType": "address",
          "name": "newOwner",
          "type": "address"
        }
      ],
      "name": "transferOwnership",
      "outputs": [],
      "stateMutability": "nonpayable",
      "type": "function"
    }
  ],
  "bytecode": "0x61010060405234801561001157600080fd5b5060405161269b38038061269b83398181016040528101906100339190610363565b80600073ffffffffffffffffffffffffffffffffffffffff168173ffffffffffffffffffffffffffffffffffffffff16036100a65760006040517f1e4fbdf700000000000000000000000000000000000000000000000000000000815260040161009d9190610414565b60405180910390fd5b6100b5816101fc60201b60201c565b508673ffffffffffffffffffffffffffffffffffffffff1660808173ffffffffffffffffffffffffffffffffffffffff16815250508567ffffffffffffffff1660a08167ffffffffffffffff16815250508473ffffffffffffffffffffffffffffffffffffffff1660e08173ffffffffffffffffffffffffffffffffffffffff168152505083600160006101000a81548173ffffffffffffffffffffffffffffffffffffffff021916908373ffffffffffffffffffffffffffffffffffffffff16021790555082600260006101000a81548173ffffffffffffffffffffffffffffffffffffffff021916908373ffffffffffffffffffffffffffffffffffffffff1602179055508173ffffffffffffffffffffffffffffffffffffffff1660c08173ffffffffffffffffffffffffffffffffffffffff16815250505050505050505061042f565b60008060009054906101000a900473ffffffffffffffffffffffffffffffffffffffff169050816000806101000a81548173ffffffffffffffffffffffffffffffffffffffff021916908373ffffffffffffffffffffffffffffffffffffffff1602179055508173ffffffffffffffffffffffffffffffffffffffff168173ffffffffffffffffffffffffffffffffffffffff167f8be0079c531659141344cd1fd0a4f28419497f9722a3daafe3b4186f6b6457e060405160405180910390a35050565b600080fd5b600073ffffffffffffffffffffffffffffffffffffffff82169050919050565b60006102f0826102c5565b9050919050565b610300816102e5565b811461030b57600080fd5b50565b60008151905061031d816102f7565b92915050565b600067ffffffffffffffff82169050919050565b61034081610323565b811461034b57600080fd5b50565b60008151905061035d81610337565b92915050565b600080600080600080600060e0888a031215610382576103816102c0565b5b60006103908a828b0161030e565b97505060206103a18a828b0161034e565b96505060406103b28a828b0161030e565b95505060606103c38a828b0161030e565b94505060806103d48a828b0161030e565b93505060a06103e58a828b0161030e565b92505060c06103f68a828b0161030e565b91505092959891949750929550565b61040e816102e5565b82525050565b60006020820190506104296000830184610405565b92915050565b60805160a05160c05160e0516121ed6104ae6000396000818161060301528181610b510152610df90152600081816107d501528181610e8d01526111ad01526000818161091c01528181610a1701528181610f0001526112f2015260008181610457015281816108e0015281816109da01526112b601526121ed6000f3fe6080604052600436106101095760003560e01c80637345bfd611610095578063a200e5d011610064578063a200e5d014610326578063be12ab7f14610363578063cdbc7119146103a0578063f2fde38b146103c9578063f726a756146103f257610109565b80637345bfd61461027a578063741bef1a146102a55780638da5cb5b146102d05780639b80eafe146102fb57610109565b80632c801d3d116100dc5780632c801d3d146101bd57806334529085146101e657806356a4b44f1461020f57806367d369301461023a578063715018a61461026357610109565b806302ecd1e61461010e5780630de229841461013957806313c31625146101645780631a197a2614610180575b600080fd5b34801561011a57600080fd5b5061012361042f565b6040516101309190611721565b60405180910390f35b34801561014557600080fd5b5061014e610455565b60405161015b919061175d565b60405180910390f35b61017e600480360381019061017991906117f1565b610479565b005b34801561018c57600080fd5b506101a760048036038101906101a29190611831565b610b4d565b6040516101b4919061186d565b60405180910390f35b3480156101c957600080fd5b506101e460048036038101906101df9190611831565b610bf2565b005b3480156101f257600080fd5b5061020d60048036038101906102089190611831565b610cad565b005b34801561021b57600080fd5b50610224610df7565b60405161023191906118a9565b60405180910390f35b34801561024657600080fd5b50610261600480360381019061025c91906118fa565b610e1b565b005b34801561026f57600080fd5b50610278610e77565b005b34801561028657600080fd5b5061028f610e8b565b60405161029c919061195c565b60405180910390f35b3480156102b157600080fd5b506102ba610eaf565b6040516102c79190611998565b60405180910390f35b3480156102dc57600080fd5b506102e5610ed5565b6040516102f2919061195c565b60405180910390f35b34801561030757600080fd5b50610310610efe565b60405161031d91906119d6565b60405180910390f35b34801561033257600080fd5b5061034d60048036038101906103489190611831565b610f22565b60405161035a9190611a0c565b60405180910390f35b34801561036f57600080fd5b5061038a60048036038101906103859190611831565b610f42565b604051610397919061195c565b60405180910390f35b3480156103ac57600080fd5b506103c760048036038101906103c29190611a53565b610f75565b005b3480156103d557600080fd5b506103f060048036038101906103eb9190611831565b611026565b005b3480156103fe57600080fd5b5061041960048036038101906104149190611a93565b6110ac565b604051610426919061186d565b60405180910390f35b600260009054906101000a900473ffffffffffffffffffffffffffffffffffffffff1681565b7f000000000000000000000000000000000000000000000000000000000000000081565b33600460008273ffffffffffffffffffffffffffffffffffffffff1673ffffffffffffffffffffffffffffffffffffffff16815260200190815260200160002060009054906101000a900460ff166104fd576040517fadcd8b6000000000000000000000000000000000000000000000000000000000815260040160405180910390fd5b8173ffffffffffffffffffffffffffffffffffffffff16600360003373ffffffffffffffffffffffffffffffffffffffff1673ffffffffffffffffffffffffffffffffffffffff16815260200190815260200160002060009054906101000a900473ffffffffffffffffffffffffffffffffffffffff1673ffffffffffffffffffffffffffffffffffffffff16146105c1576040517f5a234fc900000000000000000000000000000000000000000000000000000000815260040160405180910390fd5b600083036105fb576040517f2c5211c600000000000000000000000000000000000000000000000000000000815260040160405180910390fd5b6106483330857f000000000000000000000000000000000000000000000000000000000000000073ffffffffffffffffffffffffffffffffffffffff1661137c909392919063ffffffff16565b600260009054906101000a900473ffffffffffffffffffffffffffffffffffffffff1673ffffffffffffffffffffffffffffffffffffffff1663d592d815846040518263ffffffff1660e01b81526004016106a3919061186d565b600060405180830381600087803b1580156106bd57600080fd5b505af11580156106d1573d6000803e3d6000fd5b505050506000600160009054906101000a900473ffffffffffffffffffffffffffffffffffffffff1673ffffffffffffffffffffffffffffffffffffffff1663feaf968c6040518163ffffffff1660e01b815260040160a060405180830381865afa158015610744573d6000803e3d6000fd5b505050506040513d601f19601f820116820180604052508101906107689190611b73565b505050915050600081136107b1576040517f08c379a00000000000000000000000000000000000000000000000000000000081526004016107a890611c4b565b60405180910390fd5b60006402540be400826107c49190611c9a565b905060006040518060a001604052807f0000000000000000000000000000000000000000000000000000000000000000604051602001610804919061195c565b6040516020818303038152906040528152602001338789866001604051602001610832959493929190611cdc565b6040516020818303038152906040528152602001600067ffffffffffffffff81111561086157610860611d2f565b5b60405190808252806020026020018201604052801561089a57816020015b610887611672565b81526020019060019003908161087f5790505b508152602001600073ffffffffffffffffffffffffffffffffffffffff1681526020016108d7604051806020016040528062061a808152506113fe565b815250905060007f000000000000000000000000000000000000000000000000000000000000000073ffffffffffffffffffffffffffffffffffffffff166320487ded7f0000000000000000000000000000000000000000000000000000000000000000846040518363ffffffff1660e01b8152600401610959929190611f75565b602060405180830381865afa158015610976573d6000803e3d6000fd5b505050506040513d601f19601f8201168201806040525081019061099a9190611fa5565b9050803410156109d6576040517f07da6ee600000000000000000000000000000000000000000000000000000000815260040160405180910390fd5b60007f000000000000000000000000000000000000000000000000000000000000000073ffffffffffffffffffffffffffffffffffffffff166396f4e9f9837f0000000000000000000000000000000000000000000000000000000000000000866040518463ffffffff1660e01b8152600401610a54929190611f75565b60206040518083038185885af1158015610a72573d6000803e3d6000fd5b50505050506040513d601f19601f82011682018060405250810190610a979190611fe7565b905081341115610af4573373ffffffffffffffffffffffffffffffffffffffff166108fc8334610ac79190612014565b9081150290604051600060405180830381858888f19350505050158015610af2573d6000803e3d6000fd5b505b803373ffffffffffffffffffffffffffffffffffffffff167f1c4135ee059ffe8c577a3ab7b690ee5cd002f8e5fea13654961753022c926c438a604051610b3b919061186d565b60405180910390a35050505050505050565b60007f000000000000000000000000000000000000000000000000000000000000000073ffffffffffffffffffffffffffffffffffffffff1663dd62ed3e83306040518363ffffffff1660e01b8152600401610baa929190612048565b602060405180830381865afa158015610bc7573d6000803e3d6000fd5b505050506040513d601f19601f82011682018060405250810190610beb9190611fa5565b9050919050565b610bfa61147d565b600073ffffffffffffffffffffffffffffffffffffffff168173ffffffffffffffffffffffffffffffffffffffff1603610c69576040517f08c379a0000000000000000000000000000000000000000000000000000000008152600401610c60906120bd565b60405180910390fd5b80600260006101000a81548173ffffffffffffffffffffffffffffffffffffffff021916908373ffffffffffffffffffffffffffffffffffffffff16021790555050565b600073ffffffffffffffffffffffffffffffffffffffff168173ffffffffffffffffffffffffffffffffffffffff1603610d1c576040517f08c379a0000000000000000000000000000000000000000000000000000000008152600401610d1390612129565b60405180910390fd5b80600360003373ffffffffffffffffffffffffffffffffffffffff1673ffffffffffffffffffffffffffffffffffffffff16815260200190815260200160002060006101000a81548173ffffffffffffffffffffffffffffffffffffffff021916908373ffffffffffffffffffffffffffffffffffffffff1602179055508073ffffffffffffffffffffffffffffffffffffffff163373ffffffffffffffffffffffffffffffffffffffff167f974c0ff4b6f09b6d9da030703a50820a9649d9310923e7450725d3495cb0ec4d60405160405180910390a350565b7f000000000000000000000000000000000000000000000000000000000000000081565b610e2361147d565b8173ffffffffffffffffffffffffffffffffffffffff16837f3a5e0271cd79026f0993aa13e6dd17d1f34284aa2340c1d2c33653b9a4433ee983604051610e6a919061186d565b60405180910390a3505050565b610e7f61147d565b610e896000611504565b565b7f000000000000000000000000000000000000000000000000000000000000000081565b600160009054906101000a900473ffffffffffffffffffffffffffffffffffffffff1681565b60008060009054906101000a900473ffffffffffffffffffffffffffffffffffffffff16905090565b7f000000000000000000000000000000000000000000000000000000000000000081565b60046020528060005260406000206000915054906101000a900460ff1681565b60036020528060005260406000206000915054906101000a900473ffffffffffffffffffffffffffffffffffffffff1681565b610f7d61147d565b80600460008473ffffffffffffffffffffffffffffffffffffffff1673ffffffffffffffffffffffffffffffffffffffff16815260200190815260200160002060006101000a81548160ff0219169083151502179055508173ffffffffffffffffffffffffffffffffffffffff167f909a12cd92d75bbce1196bad210933067692125b9fe9c16ea22632a8ff90fd048260405161101a9190611a0c565b60405180910390a25050565b61102e61147d565b600073ffffffffffffffffffffffffffffffffffffffff168173ffffffffffffffffffffffffffffffffffffffff16036110a05760006040517f1e4fbdf7000000000000000000000000000000000000000000000000000000008152600401611097919061195c565b60405180910390fd5b6110a981611504565b50565b600080600160009054906101000a900473ffffffffffffffffffffffffffffffffffffffff1673ffffffffffffffffffffffffffffffffffffffff1663feaf968c6040518163ffffffff1660e01b815260040160a060405180830381865afa15801561111c573d6000803e3d6000fd5b505050506040513d601f19601f820116820180604052508101906111409190611b73565b50505091505060008113611189576040517f08c379a000000000000000000000000000000000000000000000000000000000815260040161118090611c4b565b60405180910390fd5b60006402540be4008261119c9190611c9a565b905060006040518060a001604052807f00000000000000000000000000000000000000000000000000000000000000006040516020016111dc919061195c565b604051602081830303815290604052815260200186888a86600160405160200161120a959493929190611cdc565b6040516020818303038152906040528152602001600067ffffffffffffffff81111561123957611238611d2f565b5b60405190808252806020026020018201604052801561127257816020015b61125f611672565b8152602001906001900390816112575790505b508152602001600073ffffffffffffffffffffffffffffffffffffffff1681526020016112af604051806020016040528062061a808152506113fe565b81525090507f000000000000000000000000000000000000000000000000000000000000000073ffffffffffffffffffffffffffffffffffffffff166320487ded7f0000000000000000000000000000000000000000000000000000000000000000836040518363ffffffff1660e01b815260040161132f929190611f75565b602060405180830381865afa15801561134c573d6000803e3d6000fd5b505050506040513d601f19601f820116820180604052508101906113709190611fa5565b93505050509392505050565b6113f8848573ffffffffffffffffffffffffffffffffffffffff166323b872dd8686866040516024016113b193929190612149565b604051602081830303815290604052915060e01b6020820180517bffffffffffffffffffffffffffffffffffffffffffffffffffffffff83818316178352505050506115c8565b50505050565b60606397a657c960e01b82604051602401611419919061219c565b604051602081830303815290604052907bffffffffffffffffffffffffffffffffffffffffffffffffffffffff19166020820180517bffffffffffffffffffffffffffffffffffffffffffffffffffffffff83818316178352505050509050919050565b61148561166a565b73ffffffffffffffffffffffffffffffffffffffff166114a3610ed5565b73ffffffffffffffffffffffffffffffffffffffff1614611502576114c661166a565b6040517f118cdaa70000000000000000000000000000000000000000000000000000000081526004016114f9919061195c565b60405180910390fd5b565b60008060009054906101000a900473ffffffffffffffffffffffffffffffffffffffff169050816000806101000a81548173ffffffffffffffffffffffffffffffffffffffff021916908373ffffffffffffffffffffffffffffffffffffffff1602179055508173ffffffffffffffffffffffffffffffffffffffff168173ffffffffffffffffffffffffffffffffffffffff167f8be0079c531659141344cd1fd0a4f28419497f9722a3daafe3b4186f6b6457e060405160405180910390a35050565b600080602060008451602086016000885af1806115eb576040513d6000823e3d81fd5b3d925060005191505060008214611606576001811415611622565b60008473ffffffffffffffffffffffffffffffffffffffff163b145b1561166457836040517f5274afe700000000000000000000000000000000000000000000000000000000815260040161165b919061195c565b60405180910390fd5b50505050565b600033905090565b6040518060400160405280600073ffffffffffffffffffffffffffffffffffffffff168152602001600081525090565b600073ffffffffffffffffffffffffffffffffffffffff82169050919050565b6000819050919050565b60006116e76116e26116dd846116a2565b6116c2565b6116a2565b9050919050565b60006116f9826116cc565b9050919050565b600061170b826116ee565b9050919050565b61171b81611700565b82525050565b60006020820190506117366000830184611712565b92915050565b6000611747826116ee565b9050919050565b6117578161173c565b82525050565b6000602082019050611772600083018461174e565b92915050565b600080fd5b6000819050919050565b6117908161177d565b811461179b57600080fd5b50565b6000813590506117ad81611787565b92915050565b60006117be826116a2565b9050919050565b6117ce816117b3565b81146117d957600080fd5b50565b6000813590506117eb816117c5565b92915050565b6000806040838503121561180857611807611778565b5b60006118168582860161179e565b9250506020611827858286016117dc565b9150509250929050565b60006020828403121561184757611846611778565b5b6000611855848285016117dc565b91505092915050565b6118678161177d565b82525050565b6000602082019050611882600083018461185e565b92915050565b6000611893826116ee565b9050919050565b6118a381611888565b82525050565b60006020820190506118be600083018461189a565b92915050565b6000819050919050565b6118d7816118c4565b81146118e257600080fd5b50565b6000813590506118f4816118ce565b92915050565b60008060006060848603121561191357611912611778565b5b6000611921868287016118e5565b9350506020611932868287016117dc565b92505060406119438682870161179e565b9150509250925092565b611956816117b3565b82525050565b6000602082019050611971600083018461194d565b92915050565b6000611982826116ee565b9050919050565b61199281611977565b82525050565b60006020820190506119ad6000830184611989565b92915050565b600067ffffffffffffffff82169050919050565b6119d0816119b3565b82525050565b60006020820190506119eb60008301846119c7565b92915050565b60008115159050919050565b611a06816119f1565b82525050565b6000602082019050611a2160008301846119fd565b92915050565b611a30816119f1565b8114611a3b57600080fd5b50565b600081359050611a4d81611a27565b92915050565b60008060408385031215611a6a57611a69611778565b5b6000611a78858286016117dc565b9250506020611a8985828601611a3e565b9150509250929050565b600080600060608486031215611aac57611aab611778565b5b6000611aba8682870161179e565b9350506020611acb868287016117dc565b9250506040611adc868287016117dc565b9150509250925092565b600069ffffffffffffffffffff82169050919050565b611b0581611ae6565b8114611b1057600080fd5b50565b600081519050611b2281611afc565b92915050565b6000819050919050565b611b3b81611b28565b8114611b4657600080fd5b50565b600081519050611b5881611b32565b92915050565b600081519050611b6d81611787565b92915050565b600080600080600060a08688031215611b8f57611b8e611778565b5b6000611b9d88828901611b13565b9550506020611bae88828901611b49565b9450506040611bbf88828901611b5e565b9350506060611bd088828901611b5e565b9250506080611be188828901611b13565b9150509295509295909350565b600082825260208201905092915050565b7f496e76616c696420707269636520666565640000000000000000000000000000600082015250565b6000611c35601283611bee565b9150611c4082611bff565b602082019050919050565b60006020820190508181036000830152611c6481611c28565b9050919050565b7f4e487b7100000000000000000000000000000000000000000000000000000000600052601160045260246000fd5b6000611ca58261177d565b9150611cb08361177d565b9250828202611cbe8161177d565b91508282048414831517611cd557611cd4611c6b565b5b5092915050565b600060a082019050611cf1600083018861194d565b611cfe602083018761194d565b611d0b604083018661185e565b611d18606083018561185e565b611d2560808301846119fd565b9695505050505050565b7f4e487b7100000000000000000000000000000000000000000000000000000000600052604160045260246000fd5b600081519050919050565b600082825260208201905092915050565b60005b83811015611d98578082015181840152602081019050611d7d565b60008484015250505050565b6000601f19601f8301169050919050565b6000611dc082611d5e565b611dca8185611d69565b9350611dda818560208601611d7a565b611de381611da4565b840191505092915050565b600081519050919050565b600082825260208201905092915050565b6000819050602082019050919050565b611e23816117b3565b82525050565b611e328161177d565b82525050565b604082016000820151611e4e6000850182611e1a565b506020820151611e616020850182611e29565b50505050565b6000611e738383611e38565b60408301905092915050565b6000602082019050919050565b6000611e9782611dee565b611ea18185611df9565b9350611eac83611e0a565b8060005b83811015611edd578151611ec48882611e67565b9750611ecf83611e7f565b925050600181019050611eb0565b5085935050505092915050565b600060a0830160008301518482036000860152611f078282611db5565b91505060208301518482036020860152611f218282611db5565b91505060408301518482036040860152611f3b8282611e8c565b9150506060830151611f506060860182611e1a565b5060808301518482036080860152611f688282611db5565b9150508091505092915050565b6000604082019050611f8a60008301856119c7565b8181036020830152611f9c8184611eea565b90509392505050565b600060208284031215611fbb57611fba611778565b5b6000611fc984828501611b5e565b91505092915050565b600081519050611fe1816118ce565b92915050565b600060208284031215611ffd57611ffc611778565b5b600061200b84828501611fd2565b91505092915050565b600061201f8261177d565b915061202a8361177d565b925082820390508181111561204257612041611c6b565b5b92915050565b600060408201905061205d600083018561194d565b61206a602083018461194d565b9392505050565b7f496e76616c696420525741487562000000000000000000000000000000000000600082015250565b60006120a7600e83611bee565b91506120b282612071565b602082019050919050565b600060208201905081810360008301526120d68161209a565b9050919050565b7f496e76616c69642077616c6c6574000000000000000000000000000000000000600082015250565b6000612113600e83611bee565b915061211e826120dd565b602082019050919050565b6000602082019050818103600083015261214281612106565b9050919050565b600060608201905061215e600083018661194d565b61216b602083018561194d565b612178604083018461185e565b949350505050565b6020820160008201516121966000850182611e29565b50505050565b60006020820190506121b16000830184612180565b9291505056fea2646970667358221220a0574d7c444176d0b826107eb6054d22b8ee38f14f44dee7209b55db6426063f64736f6c634300081c0033",
  "linkReferences": {},
  "deployedLinkReferences": {}
}