{
  "_format": "hh-sol-artifact-1",
  "contractName": "BitRWABridge",
  "sourceName": "contracts/BitRWABridge.sol",
  "abi": [
    {
      "inputs": [
        {
          "internalType": "address",
          "name": "_ccipRouter",
          "type": "address"
        },
        {
          "internalType": "uint64",
          "name": "_rootstockSelector",
          "type": "uint64"
        },
        {
          "internalType": "address",
          "name": "_ondoToken",
          "type": "address"
        },
        {
          "internalType": "address",
          "name": "_ethToOndoPriceFeed",
          "type": "address"
        },
        {
          "internalType": "address",
          "name": "_rootstockAdapter",
          "type": "address"
        },
        {
          "internalType": "address",
          "name": "initialOwner",
          "type": "address"
        }
      ],
      "stateMutability": "nonpayable",
      "type": "constructor"
    },
    {
      "inputs": [
        {
          "internalType": "uint256",
          "name": "sent",
          "type": "uint256"
        },
        {
          "internalType": "uint256",
          "name": "required",
          "type": "uint256"
        }
      ],
      "name": "InsufficientFee",
      "type": "error"
    },
    {
      "inputs": [
        {
          "internalType": "uint256",
          "name": "available",
          "type": "uint256"
        },
        {
          "internalType": "uint256",
          "name": "required",
          "type": "uint256"
        }
      ],
      "name": "InsufficientTokenAllowance",
      "type": "error"
    },
    {
      "inputs": [
        {
          "internalType": "uint256",
          "name": "available",
          "type": "uint256"
        },
        {
          "internalType": "uint256",
          "name": "required",
          "type": "uint256"
        }
      ],
      "name": "InsufficientTokenBalance",
      "type": "error"
    },
    {
      "inputs": [
        {
          "internalType": "address",
          "name": "router",
          "type": "address"
        }
      ],
      "name": "InvalidRouter",
      "type": "error"
    },
    {
      "inputs": [],
      "name": "InvalidTokenHolder",
      "type": "error"
    },
    {
      "inputs": [],
      "name": "InvalidWalletAddress",
      "type": "error"
    },
    {
      "inputs": [
        {
          "internalType": "address",
          "name": "user",
          "type": "address"
        }
      ],
      "name": "NotCompliant",
      "type": "error"
    },
    {
      "inputs": [
        {
          "internalType": "address",
          "name": "owner",
          "type": "address"
        }
      ],
      "name": "OwnableInvalidOwner",
      "type": "error"
    },
    {
      "inputs": [
        {
          "internalType": "address",
          "name": "account",
          "type": "address"
        }
      ],
      "name": "OwnableUnauthorizedAccount",
      "type": "error"
    },
    {
      "inputs": [
        {
          "internalType": "address",
          "name": "token",
          "type": "address"
        }
      ],
      "name": "SafeERC20FailedOperation",
      "type": "error"
    },
    {
      "inputs": [
        {
          "internalType": "address",
          "name": "user",
          "type": "address"
        }
      ],
      "name": "WalletNotBound",
      "type": "error"
    },
    {
      "inputs": [],
      "name": "ZeroAmount",
      "type": "error"
    },
    {
      "anonymous": false,
      "inputs": [
        {
          "indexed": true,
          "internalType": "address",
          "name": "user",
          "type": "address"
        },
        {
          "indexed": false,
          "internalType": "uint256",
          "name": "ondoAmount",
          "type": "uint256"
        },
        {
          "indexed": false,
          "internalType": "uint256",
          "name": "ethValue",
          "type": "uint256"
        },
        {
          "indexed": true,
          "internalType": "bytes32",
          "name": "ccipMessageId",
          "type": "bytes32"
        }
      ],
      "name": "AssetLocked",
      "type": "event"
    },
    {
      "anonymous": false,
      "inputs": [
        {
          "indexed": true,
          "internalType": "address",
          "name": "user",
          "type": "address"
        },
        {
          "indexed": false,
          "internalType": "string",
          "name": "reason",
          "type": "string"
        }
      ],
      "name": "BridgeAttemptFailed",
      "type": "event"
    },
    {
      "anonymous": false,
      "inputs": [
        {
          "indexed": true,
          "internalType": "bytes32",
          "name": "originalMessageId",
          "type": "bytes32"
        },
        {
          "indexed": true,
          "internalType": "address",
          "name": "ethereumUser",
          "type": "address"
        },
        {
          "indexed": false,
          "internalType": "uint256",
          "name": "ondoAmountLocked",
          "type": "uint256"
        },
        {
          "indexed": false,
          "internalType": "uint256",
          "name": "ethValueAtLock",
          "type": "uint256"
        },
        {
          "indexed": false,
          "internalType": "uint256",
          "name": "rOndoAmountMinted",
          "type": "uint256"
        },
        {
          "indexed": false,
          "internalType": "uint256",
          "name": "rbtcValueAtMint",
          "type": "uint256"
        }
      ],
      "name": "BridgeCompleted",
      "type": "event"
    },
    {
      "anonymous": false,
      "inputs": [
        {
          "indexed": true,
          "internalType": "address",
          "name": "user",
          "type": "address"
        },
        {
          "indexed": false,
          "internalType": "bool",
          "name": "isCompliant",
          "type": "bool"
        }
      ],
      "name": "ComplianceStatusUpdated",
      "type": "event"
    },
    {
      "anonymous": false,
      "inputs": [
        {
          "indexed": true,
          "internalType": "address",
          "name": "previousOwner",
          "type": "address"
        },
        {
          "indexed": true,
          "internalType": "address",
          "name": "newOwner",
          "type": "address"
        }
      ],
      "name": "OwnershipTransferred",
      "type": "event"
    },
    {
      "anonymous": false,
      "inputs": [
        {
          "indexed": true,
          "internalType": "address",
          "name": "user",
          "type": "address"
        },
        {
          "indexed": true,
          "internalType": "address",
          "name": "bitmaskWallet",
          "type": "address"
        }
      ],
      "name": "WalletBound",
      "type": "event"
    },
    {
      "inputs": [
        {
          "internalType": "address",
          "name": "user",
          "type": "address"
        },
        {
          "internalType": "address",
          "name": "bitmaskWallet",
          "type": "address"
        }
      ],
      "name": "adminBindBitmaskWallet",
      "outputs": [],
      "stateMutability": "nonpayable",
      "type": "function"
    },
    {
      "inputs": [
        {
          "internalType": "address",
          "name": "bitmaskWallet",
          "type": "address"
        }
      ],
      "name": "bindBitmaskWallet",
      "outputs": [],
      "stateMutability": "nonpayable",
      "type": "function"
    },
    {
      "inputs": [
        {
          "internalType": "address",
          "name": "",
          "type": "address"
        }
      ],
      "name": "bitmaskWalletBindings",
      "outputs": [
        {
          "internalType": "address",
          "name": "",
          "type": "address"
        }
      ],
      "stateMutability": "view",
      "type": "function"
    },
    {
      "inputs": [
        {
          "internalType": "address",
          "name": "user",
          "type": "address"
        },
        {
          "internalType": "address",
          "name": "ondoTokenHolder",
          "type": "address"
        },
        {
          "internalType": "uint256",
          "name": "ondoAmount",
          "type": "uint256"
        }
      ],
      "name": "canBridge",
      "outputs": [
        {
          "internalType": "bool",
          "name": "canBridgeResult",
          "type": "bool"
        },
        {
          "internalType": "string",
          "name": "reason",
          "type": "string"
        }
      ],
      "stateMutability": "view",
      "type": "function"
    },
    {
      "inputs": [
        {
          "components": [
            {
              "internalType": "bytes32",
              "name": "messageId",
              "type": "bytes32"
            },
            {
              "internalType": "uint64",
              "name": "sourceChainSelector",
              "type": "uint64"
            },
            {
              "internalType": "bytes",
              "name": "sender",
              "type": "bytes"
            },
            {
              "internalType": "bytes",
              "name": "data",
              "type": "bytes"
            },
            {
              "components": [
                {
                  "internalType": "address",
                  "name": "token",
                  "type": "address"
                },
                {
                  "internalType": "uint256",
                  "name": "amount",
                  "type": "uint256"
                }
              ],
              "internalType": "struct Client.EVMTokenAmount[]",
              "name": "destTokenAmounts",
              "type": "tuple[]"
            }
          ],
          "internalType": "struct Client.Any2EVMMessage",
          "name": "message",
          "type": "tuple"
        }
      ],
      "name": "ccipReceive",
      "outputs": [],
      "stateMutability": "nonpayable",
      "type": "function"
    },
    {
      "inputs": [],
      "name": "ccipRouter",
      "outputs": [
        {
          "internalType": "contract IRouterClient",
          "name": "",
          "type": "address"
        }
      ],
      "stateMutability": "view",
      "type": "function"
    },
    {
      "inputs": [
        {
          "internalType": "address",
          "name": "token",
          "type": "address"
        },
        {
          "internalType": "address",
          "name": "to",
          "type": "address"
        },
        {
          "internalType": "uint256",
          "name": "amount",
          "type": "uint256"
        }
      ],
      "name": "emergencyWithdraw",
      "outputs": [],
      "stateMutability": "nonpayable",
      "type": "function"
    },
    {
      "inputs": [
        {
          "internalType": "address",
          "name": "to",
          "type": "address"
        },
        {
          "internalType": "uint256",
          "name": "amount",
          "type": "uint256"
        }
      ],
      "name": "emergencyWithdrawETH",
      "outputs": [],
      "stateMutability": "nonpayable",
      "type": "function"
    },
    {
      "inputs": [],
      "name": "ethToOndoPriceFeed",
      "outputs": [
        {
          "internalType": "contract AggregatorV3Interface",
          "name": "",
          "type": "address"
        }
      ],
      "stateMutability": "view",
      "type": "function"
    },
    {
      "inputs": [
        {
          "internalType": "address",
          "name": "",
          "type": "address"
        }
      ],
      "name": "ethToRootstockAddress",
      "outputs": [
        {
          "internalType": "address",
          "name": "",
          "type": "address"
        }
      ],
      "stateMutability": "view",
      "type": "function"
    },
    {
      "inputs": [
        {
          "internalType": "uint256",
          "name": "ondoAmount",
          "type": "uint256"
        }
      ],
      "name": "getRequiredFee",
      "outputs": [
        {
          "internalType": "uint256",
          "name": "requiredFee",
          "type": "uint256"
        }
      ],
      "stateMutability": "view",
      "type": "function"
    },
    {
      "inputs": [],
      "name": "getRouter",
      "outputs": [
        {
          "internalType": "address",
          "name": "",
          "type": "address"
        }
      ],
      "stateMutability": "view",
      "type": "function"
    },
    {
      "inputs": [
        {
          "internalType": "address",
          "name": "user",
          "type": "address"
        }
      ],
      "name": "getUserStatus",
      "outputs": [
        {
          "internalType": "bool",
          "name": "compliant",
          "type": "bool"
        },
        {
          "internalType": "address",
          "name": "boundWallet",
          "type": "address"
        },
        {
          "internalType": "uint256",
          "name": "lockedAmount",
          "type": "uint256"
        }
      ],
      "stateMutability": "view",
      "type": "function"
    },
    {
      "inputs": [
        {
          "internalType": "address",
          "name": "",
          "type": "address"
        }
      ],
      "name": "isCompliant",
      "outputs": [
        {
          "internalType": "bool",
          "name": "",
          "type": "bool"
        }
      ],
      "stateMutability": "view",
      "type": "function"
    },
    {
      "inputs": [
        {
          "internalType": "uint256",
          "name": "ondoAmount",
          "type": "uint256"
        },
        {
          "internalType": "address",
          "name": "ondoTokenHolder",
          "type": "address"
        }
      ],
      "name": "lockAndBridge",
      "outputs": [],
      "stateMutability": "payable",
      "type": "function"
    },
    {
      "inputs": [
        {
          "internalType": "address",
          "name": "",
          "type": "address"
        }
      ],
      "name": "lockedBalances",
      "outputs": [
        {
          "internalType": "uint256",
          "name": "",
          "type": "uint256"
        }
      ],
      "stateMutability": "view",
      "type": "function"
    },
    {
      "inputs": [
        {
          "internalType": "address",
          "name": "user",
          "type": "address"
        },
        {
          "internalType": "address",
          "name": "bitmaskWallet",
          "type": "address"
        }
      ],
      "name": "onboardUser",
      "outputs": [],
      "stateMutability": "nonpayable",
      "type": "function"
    },
    {
      "inputs": [],
      "name": "ondoToken",
      "outputs": [
        {
          "internalType": "contract IERC20",
          "name": "",
          "type": "address"
        }
      ],
      "stateMutability": "view",
      "type": "function"
    },
    {
      "inputs": [
        {
          "internalType": "bytes32",
          "name": "",
          "type": "bytes32"
        }
      ],
      "name": "originalSender",
      "outputs": [
        {
          "internalType": "address",
          "name": "",
          "type": "address"
        }
      ],
      "stateMutability": "view",
      "type": "function"
    },
    {
      "inputs": [],
      "name": "owner",
      "outputs": [
        {
          "internalType": "address",
          "name": "",
          "type": "address"
        }
      ],
      "stateMutability": "view",
      "type": "function"
    },
    {
      "inputs": [],
      "name": "rOndoToken",
      "outputs": [
        {
          "internalType": "address",
          "name": "",
          "type": "address"
        }
      ],
      "stateMutability": "view",
      "type": "function"
    },
    {
      "inputs": [],
      "name": "rbtcToROndoPriceFeed",
      "outputs": [
        {
          "internalType": "contract AggregatorV3Interface",
          "name": "",
          "type": "address"
        }
      ],
      "stateMutability": "view",
      "type": "function"
    },
    {
      "inputs": [],
      "name": "renounceOwnership",
      "outputs": [],
      "stateMutability": "nonpayable",
      "type": "function"
    },
    {
      "inputs": [],
      "name": "rootstockAdapter",
      "outputs": [
        {
          "internalType": "address",
          "name": "",
          "type": "address"
        }
      ],
      "stateMutability": "view",
      "type": "function"
    },
    {
      "inputs": [],
      "name": "rootstockChainSelector",
      "outputs": [
        {
          "internalType": "uint64",
          "name": "",
          "type": "uint64"
        }
      ],
      "stateMutability": "view",
      "type": "function"
    },
    {
      "inputs": [
        {
          "internalType": "address",
          "name": "user",
          "type": "address"
        },
        {
          "internalType": "bool",
          "name": "approved",
          "type": "bool"
        }
      ],
      "name": "setCompliance",
      "outputs": [],
      "stateMutability": "nonpayable",
      "type": "function"
    },
    {
      "inputs": [
        {
          "internalType": "address",
          "name": "_ethToOndoPriceFeed",
          "type": "address"
        },
        {
          "internalType": "address",
          "name": "_rbtcToROndoPriceFeed",
          "type": "address"
        }
      ],
      "name": "setPriceFeeds",
      "outputs": [],
      "stateMutability": "nonpayable",
      "type": "function"
    },
    {
      "inputs": [
        {
          "internalType": "address",
          "name": "_rOndoToken",
          "type": "address"
        }
      ],
      "name": "setROndoToken",
      "outputs": [],
      "stateMutability": "nonpayable",
      "type": "function"
    },
    {
      "inputs": [
        {
          "internalType": "bytes4",
          "name": "interfaceId",
          "type": "bytes4"
        }
      ],
      "name": "supportsInterface",
      "outputs": [
        {
          "internalType": "bool",
          "name": "",
          "type": "bool"
        }
      ],
      "stateMutability": "view",
      "type": "function"
    },
    {
      "inputs": [
        {
          "internalType": "address",
          "name": "newOwner",
          "type": "address"
        }
      ],
      "name": "transferOwnership",
      "outputs": [],
      "stateMutability": "nonpayable",
      "type": "function"
    },
    {
      "stateMutability": "payable",
      "type": "receive"
    }
  ],
  "bytecode": "0x61010060405234801561001157600080fd5b50604051614b4d380380614b4d83398181016040528101906100339190610601565b8086600073ffffffffffffffffffffffffffffffffffffffff168173ffffffffffffffffffffffffffffffffffffffff16036100a75760006040517fd7f7333400000000000000000000000000000000000000000000000000000000815260040161009e919061069d565b60405180910390fd5b8073ffffffffffffffffffffffffffffffffffffffff1660808173ffffffffffffffffffffffffffffffffffffffff168152505050600073ffffffffffffffffffffffffffffffffffffffff168173ffffffffffffffffffffffffffffffffffffffff160361014e5760006040517f1e4fbdf7000000000000000000000000000000000000000000000000000000008152600401610145919061069d565b60405180910390fd5b61015d8161049a60201b60201c565b50600073ffffffffffffffffffffffffffffffffffffffff168673ffffffffffffffffffffffffffffffffffffffff16036101cd576040517f08c379a00000000000000000000000000000000000000000000000000000000081526004016101c490610715565b60405180910390fd5b600073ffffffffffffffffffffffffffffffffffffffff168473ffffffffffffffffffffffffffffffffffffffff160361023c576040517f08c379a000000000000000000000000000000000000000000000000000000000815260040161023390610781565b60405180910390fd5b600073ffffffffffffffffffffffffffffffffffffffff168373ffffffffffffffffffffffffffffffffffffffff16036102ab576040517f08c379a00000000000000000000000000000000000000000000000000000000081526004016102a2906107ed565b60405180910390fd5b600073ffffffffffffffffffffffffffffffffffffffff168273ffffffffffffffffffffffffffffffffffffffff160361031a576040517f08c379a000000000000000000000000000000000000000000000000000000000815260040161031190610859565b60405180910390fd5b600073ffffffffffffffffffffffffffffffffffffffff168173ffffffffffffffffffffffffffffffffffffffff1603610389576040517f08c379a0000000000000000000000000000000000000000000000000000000008152600401610380906108c5565b60405180910390fd5b8573ffffffffffffffffffffffffffffffffffffffff1660a08173ffffffffffffffffffffffffffffffffffffffff16815250508467ffffffffffffffff1660c08167ffffffffffffffff16815250508373ffffffffffffffffffffffffffffffffffffffff1660e08173ffffffffffffffffffffffffffffffffffffffff168152505082600360006101000a81548173ffffffffffffffffffffffffffffffffffffffff021916908373ffffffffffffffffffffffffffffffffffffffff16021790555081600160006101000a81548173ffffffffffffffffffffffffffffffffffffffff021916908373ffffffffffffffffffffffffffffffffffffffff1602179055505050505050506108e5565b60008060009054906101000a900473ffffffffffffffffffffffffffffffffffffffff169050816000806101000a81548173ffffffffffffffffffffffffffffffffffffffff021916908373ffffffffffffffffffffffffffffffffffffffff1602179055508173ffffffffffffffffffffffffffffffffffffffff168173ffffffffffffffffffffffffffffffffffffffff167f8be0079c531659141344cd1fd0a4f28419497f9722a3daafe3b4186f6b6457e060405160405180910390a35050565b600080fd5b600073ffffffffffffffffffffffffffffffffffffffff82169050919050565b600061058e82610563565b9050919050565b61059e81610583565b81146105a957600080fd5b50565b6000815190506105bb81610595565b92915050565b600067ffffffffffffffff82169050919050565b6105de816105c1565b81146105e957600080fd5b50565b6000815190506105fb816105d5565b92915050565b60008060008060008060c0878903121561061e5761061d61055e565b5b600061062c89828a016105ac565b965050602061063d89828a016105ec565b955050604061064e89828a016105ac565b945050606061065f89828a016105ac565b935050608061067089828a016105ac565b92505060a061068189828a016105ac565b9150509295509295509295565b61069781610583565b82525050565b60006020820190506106b2600083018461068e565b92915050565b600082825260208201905092915050565b7f496e76616c696420726f75746572206164647265737300000000000000000000600082015250565b60006106ff6016836106b8565b915061070a826106c9565b602082019050919050565b6000602082019050818103600083015261072e816106f2565b9050919050565b7f496e76616c696420746f6b656e20616464726573730000000000000000000000600082015250565b600061076b6015836106b8565b915061077682610735565b602082019050919050565b6000602082019050818103600083015261079a8161075e565b9050919050565b7f496e76616c696420707269636520666565642061646472657373000000000000600082015250565b60006107d7601a836106b8565b91506107e2826107a1565b602082019050919050565b60006020820190508181036000830152610806816107ca565b9050919050565b7f496e76616c696420616461707465722061646472657373000000000000000000600082015250565b60006108436017836106b8565b915061084e8261080d565b602082019050919050565b6000602082019050818103600083015261087281610836565b9050919050565b7f496e76616c6964206f776e657220616464726573730000000000000000000000600082015250565b60006108af6015836106b8565b91506108ba82610879565b602082019050919050565b600060208201905081810360008301526108de816108a2565b9050919050565b60805160a05160c05160e0516141e261096b600039600081816109ad01528181610bfb01528181610ce001528181610dcb01528181611d8d0152611e75015260008181610fc6015281816110ce0152818161162f0152611af90152600081816109d101528181610f8a0152818161109101526115f301526000611fa701526141e26000f3fe6080604052600436106101d15760003560e01c80638da5cb5b116100f7578063cdbc711911610095578063ef36073111610064578063ef360731146106ad578063f2fde38b146106d8578063f7d6117014610701578063fc1025121461072c576101d8565b8063cdbc7119146105f3578063d79e85671461061c578063e63ea40814610645578063ea0d5dcd1461066e576101d8565b8063a5bd67a1116100d1578063a5bd67a114610522578063ad3d5b991461054d578063b0f479a11461058b578063be12ab7f146105b6576101d8565b80638da5cb5b1461048f5780639b80eafe146104ba578063a200e5d0146104e5576101d8565b8063345290851161016f5780637de69af71161013e5780637de69af7146103d7578063843096e51461040057806385572ffb1461043d5780638d5ecce914610466576101d8565b8063345290851461031d5780633d299465146103465780633eddd5ec14610383578063715018a6146103c0576101d8565b80630a5f5b08116101ab5780630a5f5b08146102805780630de22984146102ab57806313c31625146102d657806317d15f76146102f2576101d8565b806301ffc9a7146101dd5780630483a7f61461021a578063068f158d14610257576101d8565b366101d857005b600080fd5b3480156101e957600080fd5b5061020460048036038101906101ff9190612d7a565b610755565b6040516102119190612dc2565b60405180910390f35b34801561022657600080fd5b50610241600480360381019061023c9190612e3b565b610827565b60405161024e9190612e81565b60405180910390f35b34801561026357600080fd5b5061027e60048036038101906102799190612e9c565b61083f565b005b34801561028c57600080fd5b506102956109ab565b6040516102a29190612f3b565b60405180910390f35b3480156102b757600080fd5b506102c06109cf565b6040516102cd9190612f77565b60405180910390f35b6102f060048036038101906102eb9190612fbe565b6109f3565b005b3480156102fe57600080fd5b50610307611206565b604051610314919061300d565b60405180910390f35b34801561032957600080fd5b50610344600480360381019061033f9190612e3b565b61122c565b005b34801561035257600080fd5b5061036d60048036038101906103689190613028565b6113fb565b60405161037a9190612e81565b60405180910390f35b34801561038f57600080fd5b506103aa60048036038101906103a5919061308b565b6116b6565b6040516103b7919061300d565b60405180910390f35b3480156103cc57600080fd5b506103d56116e9565b005b3480156103e357600080fd5b506103fe60048036038101906103f99190612e3b565b6116fd565b005b34801561040c57600080fd5b5061042760048036038101906104229190612e3b565b6117b8565b604051610434919061300d565b60405180910390f35b34801561044957600080fd5b50610464600480360381019061045f91906130dc565b6117eb565b005b34801561047257600080fd5b5061048d60048036038101906104889190612e9c565b611877565b005b34801561049b57600080fd5b506104a4611ace565b6040516104b1919061300d565b60405180910390f35b3480156104c657600080fd5b506104cf611af7565b6040516104dc9190613148565b60405180910390f35b3480156104f157600080fd5b5061050c60048036038101906105079190612e3b565b611b1b565b6040516105199190612dc2565b60405180910390f35b34801561052e57600080fd5b50610537611b3b565b6040516105449190613184565b60405180910390f35b34801561055957600080fd5b50610574600480360381019061056f919061319f565b611b61565b604051610582929190613282565b60405180910390f35b34801561059757600080fd5b506105a0611fa3565b6040516105ad919061300d565b60405180910390f35b3480156105c257600080fd5b506105dd60048036038101906105d89190612e3b565b611fcb565b6040516105ea919061300d565b60405180910390f35b3480156105ff57600080fd5b5061061a600480360381019061061591906132de565b611ffe565b005b34801561062857600080fd5b50610643600480360381019061063e919061331e565b61211e565b005b34801561065157600080fd5b5061066c6004803603810190610667919061319f565b6122cc565b005b34801561067a57600080fd5b5061069560048036038101906106909190612e3b565b6123b6565b6040516106a49392919061335e565b60405180910390f35b3480156106b957600080fd5b506106c26124b5565b6040516106cf919061300d565b60405180910390f35b3480156106e457600080fd5b506106ff60048036038101906106fa9190612e3b565b6124db565b005b34801561070d57600080fd5b50610716612561565b6040516107239190613184565b60405180910390f35b34801561073857600080fd5b50610753600480360381019061074e9190612e9c565b612587565b005b60007f85572ffb000000000000000000000000000000000000000000000000000000007bffffffffffffffffffffffffffffffffffffffffffffffffffffffff1916827bffffffffffffffffffffffffffffffffffffffffffffffffffffffff1916148061082057507f01ffc9a7000000000000000000000000000000000000000000000000000000007bffffffffffffffffffffffffffffffffffffffffffffffffffffffff1916827bffffffffffffffffffffffffffffffffffffffffffffffffffffffff1916145b9050919050565b60076020528060005260406000206000915090505481565b610847612737565b600073ffffffffffffffffffffffffffffffffffffffff168273ffffffffffffffffffffffffffffffffffffffff16036108b6576040517f08c379a00000000000000000000000000000000000000000000000000000000081526004016108ad906133e1565b60405180910390fd5b600073ffffffffffffffffffffffffffffffffffffffff168173ffffffffffffffffffffffffffffffffffffffff1603610925576040517f08c379a000000000000000000000000000000000000000000000000000000000815260040161091c9061344d565b60405180910390fd5b81600360006101000a81548173ffffffffffffffffffffffffffffffffffffffff021916908373ffffffffffffffffffffffffffffffffffffffff16021790555080600460006101000a81548173ffffffffffffffffffffffffffffffffffffffff021916908373ffffffffffffffffffffffffffffffffffffffff1602179055505050565b7f000000000000000000000000000000000000000000000000000000000000000081565b7f000000000000000000000000000000000000000000000000000000000000000081565b33600560008273ffffffffffffffffffffffffffffffffffffffff1673ffffffffffffffffffffffffffffffffffffffff16815260200190815260200160002060009054906101000a900460ff16610a8257806040517f55f7aa08000000000000000000000000000000000000000000000000000000008152600401610a79919061300d565b60405180910390fd5b60008303610abc576040517f1f2a200500000000000000000000000000000000000000000000000000000000815260040160405180910390fd5b600073ffffffffffffffffffffffffffffffffffffffff168273ffffffffffffffffffffffffffffffffffffffff1603610b22576040517fdb73843e00000000000000000000000000000000000000000000000000000000815260040160405180910390fd5b6000600960003373ffffffffffffffffffffffffffffffffffffffff1673ffffffffffffffffffffffffffffffffffffffff16815260200190815260200160002060009054906101000a900473ffffffffffffffffffffffffffffffffffffffff169050600073ffffffffffffffffffffffffffffffffffffffff168173ffffffffffffffffffffffffffffffffffffffff1603610bf757336040517ffc8e8dad000000000000000000000000000000000000000000000000000000008152600401610bee919061300d565b60405180910390fd5b60007f000000000000000000000000000000000000000000000000000000000000000073ffffffffffffffffffffffffffffffffffffffff166370a08231856040518263ffffffff1660e01b8152600401610c52919061300d565b602060405180830381865afa158015610c6f573d6000803e3d6000fd5b505050506040513d601f19601f82011682018060405250810190610c939190613482565b905084811015610cdc5780856040517fa17124f8000000000000000000000000000000000000000000000000000000008152600401610cd39291906134af565b60405180910390fd5b60007f000000000000000000000000000000000000000000000000000000000000000073ffffffffffffffffffffffffffffffffffffffff1663dd62ed3e86306040518363ffffffff1660e01b8152600401610d399291906134d8565b602060405180830381865afa158015610d56573d6000803e3d6000fd5b505050506040513d601f19601f82011682018060405250810190610d7a9190613482565b905085811015610dc35780866040517fdc98d7bb000000000000000000000000000000000000000000000000000000008152600401610dba9291906134af565b60405180910390fd5b610e108530887f000000000000000000000000000000000000000000000000000000000000000073ffffffffffffffffffffffffffffffffffffffff166127be909392919063ffffffff16565b85600760003373ffffffffffffffffffffffffffffffffffffffff1673ffffffffffffffffffffffffffffffffffffffff1681526020019081526020016000206000828254610e5f9190613530565b9250508190555060006040518060a00160405280600160009054906101000a900473ffffffffffffffffffffffffffffffffffffffff16604051602001610ea6919061300d565b604051602081830303815290604052815260200133868a670f207539952d00006001604051602001610edc95949392919061359f565b6040516020818303038152906040528152602001600067ffffffffffffffff811115610f0b57610f0a6135f2565b5b604051908082528060200260200182016040528015610f4457816020015b610f31612cde565b815260200190600190039081610f295790505b508152602001600073ffffffffffffffffffffffffffffffffffffffff168152602001610f816040518060200160405280620493e0815250612840565b815250905060007f000000000000000000000000000000000000000000000000000000000000000073ffffffffffffffffffffffffffffffffffffffff166320487ded7f0000000000000000000000000000000000000000000000000000000000000000846040518363ffffffff1660e01b81526004016110039291906137fd565b602060405180830381865afa158015611020573d6000803e3d6000fd5b505050506040513d601f19601f820116820180604052508101906110449190613482565b90508034101561108d5734816040517fa458261b0000000000000000000000000000000000000000000000000000000081526004016110849291906134af565b60405180910390fd5b60007f000000000000000000000000000000000000000000000000000000000000000073ffffffffffffffffffffffffffffffffffffffff166396f4e9f9837f0000000000000000000000000000000000000000000000000000000000000000866040518463ffffffff1660e01b815260040161110b9291906137fd565b60206040518083038185885af1158015611129573d6000803e3d6000fd5b50505050506040513d601f19601f8201168201806040525081019061114e9190613842565b9050336006600083815260200190815260200160002060006101000a81548173ffffffffffffffffffffffffffffffffffffffff021916908373ffffffffffffffffffffffffffffffffffffffff160217905550803373ffffffffffffffffffffffffffffffffffffffff167f03e8508f28ddf5ecfc2f3f6ed5da239fdcb129049a2115c7699e9ba478fe732d8b670f207539952d00006040516111f39291906138a0565b60405180910390a3505050505050505050565b600160009054906101000a900473ffffffffffffffffffffffffffffffffffffffff1681565b600073ffffffffffffffffffffffffffffffffffffffff168173ffffffffffffffffffffffffffffffffffffffff1603611292576040517fa5f90a1100000000000000000000000000000000000000000000000000000000815260040160405180910390fd5b600560003373ffffffffffffffffffffffffffffffffffffffff1673ffffffffffffffffffffffffffffffffffffffff16815260200190815260200160002060009054906101000a900460ff1661132057336040517f55f7aa08000000000000000000000000000000000000000000000000000000008152600401611317919061300d565b60405180910390fd5b80600960003373ffffffffffffffffffffffffffffffffffffffff1673ffffffffffffffffffffffffffffffffffffffff16815260200190815260200160002060006101000a81548173ffffffffffffffffffffffffffffffffffffffff021916908373ffffffffffffffffffffffffffffffffffffffff1602179055508073ffffffffffffffffffffffffffffffffffffffff163373ffffffffffffffffffffffffffffffffffffffff167f974c0ff4b6f09b6d9da030703a50820a9649d9310923e7450725d3495cb0ec4d60405160405180910390a350565b600080600960003373ffffffffffffffffffffffffffffffffffffffff1673ffffffffffffffffffffffffffffffffffffffff16815260200190815260200160002060009054906101000a900473ffffffffffffffffffffffffffffffffffffffff169050600073ffffffffffffffffffffffffffffffffffffffff168173ffffffffffffffffffffffffffffffffffffffff16036114d157336040517ffc8e8dad0000000000000000000000000000000000000000000000000000000081526004016114c8919061300d565b60405180910390fd5b60006040518060a00160405280600160009054906101000a900473ffffffffffffffffffffffffffffffffffffffff16604051602001611511919061300d565b6040516020818303038152906040528152602001338487670f207539952d0000600160405160200161154795949392919061359f565b6040516020818303038152906040528152602001600067ffffffffffffffff811115611576576115756135f2565b5b6040519080825280602002602001820160405280156115af57816020015b61159c612cde565b8152602001906001900390816115945790505b508152602001600073ffffffffffffffffffffffffffffffffffffffff1681526020016115ec6040518060200160405280620493e0815250612840565b81525090507f000000000000000000000000000000000000000000000000000000000000000073ffffffffffffffffffffffffffffffffffffffff166320487ded7f0000000000000000000000000000000000000000000000000000000000000000836040518363ffffffff1660e01b815260040161166c9291906137fd565b602060405180830381865afa158015611689573d6000803e3d6000fd5b505050506040513d601f19601f820116820180604052508101906116ad9190613482565b92505050919050565b60066020528060005260406000206000915054906101000a900473ffffffffffffffffffffffffffffffffffffffff1681565b6116f1612737565b6116fb60006128bf565b565b611705612737565b600073ffffffffffffffffffffffffffffffffffffffff168173ffffffffffffffffffffffffffffffffffffffff1603611774576040517f08c379a000000000000000000000000000000000000000000000000000000000815260040161176b90613915565b60405180910390fd5b80600260006101000a81548173ffffffffffffffffffffffffffffffffffffffff021916908373ffffffffffffffffffffffffffffffffffffffff16021790555050565b60086020528060005260406000206000915054906101000a900473ffffffffffffffffffffffffffffffffffffffff1681565b6117f3611fa3565b73ffffffffffffffffffffffffffffffffffffffff163373ffffffffffffffffffffffffffffffffffffffff161461186257336040517fd7f73334000000000000000000000000000000000000000000000000000000008152600401611859919061300d565b60405180910390fd5b6118748161186f90613c69565b612983565b50565b61187f612737565b600073ffffffffffffffffffffffffffffffffffffffff168273ffffffffffffffffffffffffffffffffffffffff16036118e5576040517fa5f90a1100000000000000000000000000000000000000000000000000000000815260040160405180910390fd5b600073ffffffffffffffffffffffffffffffffffffffff168173ffffffffffffffffffffffffffffffffffffffff160361194b576040517fa5f90a1100000000000000000000000000000000000000000000000000000000815260040160405180910390fd5b6001600560008473ffffffffffffffffffffffffffffffffffffffff1673ffffffffffffffffffffffffffffffffffffffff16815260200190815260200160002060006101000a81548160ff02191690831515021790555080600960008473ffffffffffffffffffffffffffffffffffffffff1673ffffffffffffffffffffffffffffffffffffffff16815260200190815260200160002060006101000a81548173ffffffffffffffffffffffffffffffffffffffff021916908373ffffffffffffffffffffffffffffffffffffffff1602179055508173ffffffffffffffffffffffffffffffffffffffff167f909a12cd92d75bbce1196bad210933067692125b9fe9c16ea22632a8ff90fd046001604051611a689190612dc2565b60405180910390a28073ffffffffffffffffffffffffffffffffffffffff168273ffffffffffffffffffffffffffffffffffffffff167f974c0ff4b6f09b6d9da030703a50820a9649d9310923e7450725d3495cb0ec4d60405160405180910390a35050565b60008060009054906101000a900473ffffffffffffffffffffffffffffffffffffffff16905090565b7f000000000000000000000000000000000000000000000000000000000000000081565b60056020528060005260406000206000915054906101000a900460ff1681565b600360009054906101000a900473ffffffffffffffffffffffffffffffffffffffff1681565b60006060600560008673ffffffffffffffffffffffffffffffffffffffff1673ffffffffffffffffffffffffffffffffffffffff16815260200190815260200160002060009054906101000a900460ff16611bf75760006040518060400160405280601281526020017f55736572206e6f7420636f6d706c69616e74000000000000000000000000000081525091509150611f9b565b600073ffffffffffffffffffffffffffffffffffffffff16600960008773ffffffffffffffffffffffffffffffffffffffff1673ffffffffffffffffffffffffffffffffffffffff16815260200190815260200160002060009054906101000a900473ffffffffffffffffffffffffffffffffffffffff1673ffffffffffffffffffffffffffffffffffffffff1603611ccb5760006040518060400160405280601081526020017f57616c6c6574206e6f7420626f756e640000000000000000000000000000000081525091509150611f9b565b600073ffffffffffffffffffffffffffffffffffffffff168473ffffffffffffffffffffffffffffffffffffffff1603611d405760006040518060400160405280601481526020017f496e76616c696420746f6b656e20686f6c64657200000000000000000000000081525091509150611f9b565b60008303611d895760006040518060400160405280601d81526020017f416d6f756e74206d7573742062652067726561746572207468616e203000000081525091509150611f9b565b60007f000000000000000000000000000000000000000000000000000000000000000073ffffffffffffffffffffffffffffffffffffffff166370a08231866040518263ffffffff1660e01b8152600401611de4919061300d565b602060405180830381865afa158015611e01573d6000803e3d6000fd5b505050506040513d601f19601f82011682018060405250810190611e259190613482565b905083811015611e715760006040518060400160405280601a81526020017f496e73756666696369656e7420746f6b656e2062616c616e63650000000000008152509250925050611f9b565b60007f000000000000000000000000000000000000000000000000000000000000000073ffffffffffffffffffffffffffffffffffffffff1663dd62ed3e87306040518363ffffffff1660e01b8152600401611ece9291906134d8565b602060405180830381865afa158015611eeb573d6000803e3d6000fd5b505050506040513d601f19601f82011682018060405250810190611f0f9190613482565b905084811015611f5c5760006040518060400160405280601c81526020017f496e73756666696369656e7420746f6b656e20616c6c6f77616e636500000000815250935093505050611f9b565b60016040518060400160405280601581526020017f416c6c20707265636f6e646974696f6e73206d657400000000000000000000008152509350935050505b935093915050565b60007f0000000000000000000000000000000000000000000000000000000000000000905090565b60096020528060005260406000206000915054906101000a900473ffffffffffffffffffffffffffffffffffffffff1681565b612006612737565b600073ffffffffffffffffffffffffffffffffffffffff168273ffffffffffffffffffffffffffffffffffffffff1603612075576040517f08c379a000000000000000000000000000000000000000000000000000000000815260040161206c90613cc8565b60405180910390fd5b80600560008473ffffffffffffffffffffffffffffffffffffffff1673ffffffffffffffffffffffffffffffffffffffff16815260200190815260200160002060006101000a81548160ff0219169083151502179055508173ffffffffffffffffffffffffffffffffffffffff167f909a12cd92d75bbce1196bad210933067692125b9fe9c16ea22632a8ff90fd04826040516121129190612dc2565b60405180910390a25050565b612126612737565b600073ffffffffffffffffffffffffffffffffffffffff168273ffffffffffffffffffffffffffffffffffffffff1603612195576040517f08c379a000000000000000000000000000000000000000000000000000000000815260040161218c90613d34565b60405180910390fd5b600081116121d8576040517f08c379a00000000000000000000000000000000000000000000000000000000081526004016121cf90613da0565b60405180910390fd5b4781111561221b576040517f08c379a000000000000000000000000000000000000000000000000000000000815260040161221290613e0c565b60405180910390fd5b60008273ffffffffffffffffffffffffffffffffffffffff168260405161224190613e5d565b60006040518083038185875af1925050503d806000811461227e576040519150601f19603f3d011682016040523d82523d6000602084013e612283565b606091505b50509050806122c7576040517f08c379a00000000000000000000000000000000000000000000000000000000081526004016122be90613ebe565b60405180910390fd5b505050565b6122d4612737565b600073ffffffffffffffffffffffffffffffffffffffff168273ffffffffffffffffffffffffffffffffffffffff1603612343576040517f08c379a000000000000000000000000000000000000000000000000000000000815260040161233a90613d34565b60405180910390fd5b60008111612386576040517f08c379a000000000000000000000000000000000000000000000000000000000815260040161237d90613da0565b60405180910390fd5b6123b182828573ffffffffffffffffffffffffffffffffffffffff16612bb59092919063ffffffff16565b505050565b6000806000600560008573ffffffffffffffffffffffffffffffffffffffff1673ffffffffffffffffffffffffffffffffffffffff16815260200190815260200160002060009054906101000a900460ff16600960008673ffffffffffffffffffffffffffffffffffffffff1673ffffffffffffffffffffffffffffffffffffffff16815260200190815260200160002060009054906101000a900473ffffffffffffffffffffffffffffffffffffffff16600760008773ffffffffffffffffffffffffffffffffffffffff1673ffffffffffffffffffffffffffffffffffffffff168152602001908152602001600020549250925092509193909250565b600260009054906101000a900473ffffffffffffffffffffffffffffffffffffffff1681565b6124e3612737565b600073ffffffffffffffffffffffffffffffffffffffff168173ffffffffffffffffffffffffffffffffffffffff16036125555760006040517f1e4fbdf700000000000000000000000000000000000000000000000000000000815260040161254c919061300d565b60405180910390fd5b61255e816128bf565b50565b600460009054906101000a900473ffffffffffffffffffffffffffffffffffffffff1681565b61258f612737565b600073ffffffffffffffffffffffffffffffffffffffff168273ffffffffffffffffffffffffffffffffffffffff16036125f5576040517fa5f90a1100000000000000000000000000000000000000000000000000000000815260040160405180910390fd5b600073ffffffffffffffffffffffffffffffffffffffff168173ffffffffffffffffffffffffffffffffffffffff160361265b576040517fa5f90a1100000000000000000000000000000000000000000000000000000000815260040160405180910390fd5b80600960008473ffffffffffffffffffffffffffffffffffffffff1673ffffffffffffffffffffffffffffffffffffffff16815260200190815260200160002060006101000a81548173ffffffffffffffffffffffffffffffffffffffff021916908373ffffffffffffffffffffffffffffffffffffffff1602179055508073ffffffffffffffffffffffffffffffffffffffff168273ffffffffffffffffffffffffffffffffffffffff167f974c0ff4b6f09b6d9da030703a50820a9649d9310923e7450725d3495cb0ec4d60405160405180910390a35050565b61273f612c34565b73ffffffffffffffffffffffffffffffffffffffff1661275d611ace565b73ffffffffffffffffffffffffffffffffffffffff16146127bc57612780612c34565b6040517f118cdaa70000000000000000000000000000000000000000000000000000000081526004016127b3919061300d565b60405180910390fd5b565b61283a848573ffffffffffffffffffffffffffffffffffffffff166323b872dd8686866040516024016127f393929190613ede565b604051602081830303815290604052915060e01b6020820180517bffffffffffffffffffffffffffffffffffffffffffffffffffffffff8381831617835250505050612c3c565b50505050565b60606397a657c960e01b8260405160240161285b9190613f31565b604051602081830303815290604052907bffffffffffffffffffffffffffffffffffffffffffffffffffffffff19166020820180517bffffffffffffffffffffffffffffffffffffffffffffffffffffffff83818316178352505050509050919050565b60008060009054906101000a900473ffffffffffffffffffffffffffffffffffffffff169050816000806101000a81548173ffffffffffffffffffffffffffffffffffffffff021916908373ffffffffffffffffffffffffffffffffffffffff1602179055508173ffffffffffffffffffffffffffffffffffffffff168173ffffffffffffffffffffffffffffffffffffffff167f8be0079c531659141344cd1fd0a4f28419497f9722a3daafe3b4186f6b6457e060405160405180910390a35050565b6000816040015180602001905181019061299d9190613f8a565b9050600160009054906101000a900473ffffffffffffffffffffffffffffffffffffffff1673ffffffffffffffffffffffffffffffffffffffff168173ffffffffffffffffffffffffffffffffffffffff1614612a2f576040517f08c379a0000000000000000000000000000000000000000000000000000000008152600401612a2690614003565b60405180910390fd5b60008060008060008660600151806020019051810190612a4f9190614023565b9450945094509450945060006006600087815260200190815260200160002060009054906101000a900473ffffffffffffffffffffffffffffffffffffffff169050600073ffffffffffffffffffffffffffffffffffffffff168173ffffffffffffffffffffffffffffffffffffffff1603612b00576040517f08c379a0000000000000000000000000000000000000000000000000000000008152600401612af7906140ea565b60405180910390fd5b84600760008373ffffffffffffffffffffffffffffffffffffffff1673ffffffffffffffffffffffffffffffffffffffff1681526020019081526020016000206000828254612b4f919061410a565b925050819055508073ffffffffffffffffffffffffffffffffffffffff16867f4f8854fbfa9f07dd428970baf368865f8cf2fff3f1a3ef05b34bfe1b82b82d1787878787604051612ba3949392919061413e565b60405180910390a35050505050505050565b612c2f838473ffffffffffffffffffffffffffffffffffffffff1663a9059cbb8585604051602401612be8929190614183565b604051602081830303815290604052915060e01b6020820180517bffffffffffffffffffffffffffffffffffffffffffffffffffffffff8381831617835250505050612c3c565b505050565b600033905090565b600080602060008451602086016000885af180612c5f576040513d6000823e3d81fd5b3d925060005191505060008214612c7a576001811415612c96565b60008473ffffffffffffffffffffffffffffffffffffffff163b145b15612cd857836040517f5274afe7000000000000000000000000000000000000000000000000000000008152600401612ccf919061300d565b60405180910390fd5b50505050565b6040518060400160405280600073ffffffffffffffffffffffffffffffffffffffff168152602001600081525090565b6000604051905090565b600080fd5b600080fd5b60007fffffffff0000000000000000000000000000000000000000000000000000000082169050919050565b612d5781612d22565b8114612d6257600080fd5b50565b600081359050612d7481612d4e565b92915050565b600060208284031215612d9057612d8f612d18565b5b6000612d9e84828501612d65565b91505092915050565b60008115159050919050565b612dbc81612da7565b82525050565b6000602082019050612dd76000830184612db3565b92915050565b600073ffffffffffffffffffffffffffffffffffffffff82169050919050565b6000612e0882612ddd565b9050919050565b612e1881612dfd565b8114612e2357600080fd5b50565b600081359050612e3581612e0f565b92915050565b600060208284031215612e5157612e50612d18565b5b6000612e5f84828501612e26565b91505092915050565b6000819050919050565b612e7b81612e68565b82525050565b6000602082019050612e966000830184612e72565b92915050565b60008060408385031215612eb357612eb2612d18565b5b6000612ec185828601612e26565b9250506020612ed285828601612e26565b9150509250929050565b6000819050919050565b6000612f01612efc612ef784612ddd565b612edc565b612ddd565b9050919050565b6000612f1382612ee6565b9050919050565b6000612f2582612f08565b9050919050565b612f3581612f1a565b82525050565b6000602082019050612f506000830184612f2c565b92915050565b6000612f6182612f08565b9050919050565b612f7181612f56565b82525050565b6000602082019050612f8c6000830184612f68565b92915050565b612f9b81612e68565b8114612fa657600080fd5b50565b600081359050612fb881612f92565b92915050565b60008060408385031215612fd557612fd4612d18565b5b6000612fe385828601612fa9565b9250506020612ff485828601612e26565b9150509250929050565b61300781612dfd565b82525050565b60006020820190506130226000830184612ffe565b92915050565b60006020828403121561303e5761303d612d18565b5b600061304c84828501612fa9565b91505092915050565b6000819050919050565b61306881613055565b811461307357600080fd5b50565b6000813590506130858161305f565b92915050565b6000602082840312156130a1576130a0612d18565b5b60006130af84828501613076565b91505092915050565b600080fd5b600060a082840312156130d3576130d26130b8565b5b81905092915050565b6000602082840312156130f2576130f1612d18565b5b600082013567ffffffffffffffff8111156131105761310f612d1d565b5b61311c848285016130bd565b91505092915050565b600067ffffffffffffffff82169050919050565b61314281613125565b82525050565b600060208201905061315d6000830184613139565b92915050565b600061316e82612f08565b9050919050565b61317e81613163565b82525050565b60006020820190506131996000830184613175565b92915050565b6000806000606084860312156131b8576131b7612d18565b5b60006131c686828701612e26565b93505060206131d786828701612e26565b92505060406131e886828701612fa9565b9150509250925092565b600081519050919050565b600082825260208201905092915050565b60005b8381101561322c578082015181840152602081019050613211565b60008484015250505050565b6000601f19601f8301169050919050565b6000613254826131f2565b61325e81856131fd565b935061326e81856020860161320e565b61327781613238565b840191505092915050565b60006040820190506132976000830185612db3565b81810360208301526132a98184613249565b90509392505050565b6132bb81612da7565b81146132c657600080fd5b50565b6000813590506132d8816132b2565b92915050565b600080604083850312156132f5576132f4612d18565b5b600061330385828601612e26565b9250506020613314858286016132c9565b9150509250929050565b6000806040838503121561333557613334612d18565b5b600061334385828601612e26565b925050602061335485828601612fa9565b9150509250929050565b60006060820190506133736000830186612db3565b6133806020830185612ffe565b61338d6040830184612e72565b949350505050565b7f496e76616c696420455448207072696365206665656400000000000000000000600082015250565b60006133cb6016836131fd565b91506133d682613395565b602082019050919050565b600060208201905081810360008301526133fa816133be565b9050919050565b7f496e76616c696420524254432070726963652066656564000000000000000000600082015250565b60006134376017836131fd565b915061344282613401565b602082019050919050565b600060208201905081810360008301526134668161342a565b9050919050565b60008151905061347c81612f92565b92915050565b60006020828403121561349857613497612d18565b5b60006134a68482850161346d565b91505092915050565b60006040820190506134c46000830185612e72565b6134d16020830184612e72565b9392505050565b60006040820190506134ed6000830185612ffe565b6134fa6020830184612ffe565b9392505050565b7f4e487b7100000000000000000000000000000000000000000000000000000000600052601160045260246000fd5b600061353b82612e68565b915061354683612e68565b925082820190508082111561355e5761355d613501565b5b92915050565b6000819050919050565b600061358961358461357f84613564565b612edc565b613125565b9050919050565b6135998161356e565b82525050565b600060a0820190506135b46000830188612ffe565b6135c16020830187612ffe565b6135ce6040830186612e72565b6135db6060830185613590565b6135e86080830184612db3565b9695505050505050565b7f4e487b7100000000000000000000000000000000000000000000000000000000600052604160045260246000fd5b600081519050919050565b600082825260208201905092915050565b600061364882613621565b613652818561362c565b935061366281856020860161320e565b61366b81613238565b840191505092915050565b600081519050919050565b600082825260208201905092915050565b6000819050602082019050919050565b6136ab81612dfd565b82525050565b6136ba81612e68565b82525050565b6040820160008201516136d660008501826136a2565b5060208201516136e960208501826136b1565b50505050565b60006136fb83836136c0565b60408301905092915050565b6000602082019050919050565b600061371f82613676565b6137298185613681565b935061373483613692565b8060005b8381101561376557815161374c88826136ef565b975061375783613707565b925050600181019050613738565b5085935050505092915050565b600060a083016000830151848203600086015261378f828261363d565b915050602083015184820360208601526137a9828261363d565b915050604083015184820360408601526137c38282613714565b91505060608301516137d860608601826136a2565b50608083015184820360808601526137f0828261363d565b9150508091505092915050565b60006040820190506138126000830185613139565b81810360208301526138248184613772565b90509392505050565b60008151905061383c8161305f565b92915050565b60006020828403121561385857613857612d18565b5b60006138668482850161382d565b91505092915050565b600061388a61388561388084613564565b612edc565b612e68565b9050919050565b61389a8161386f565b82525050565b60006040820190506138b56000830185612e72565b6138c26020830184613891565b9392505050565b7f496e76616c696420724f4e444f20746f6b656e20616464726573730000000000600082015250565b60006138ff601b836131fd565b915061390a826138c9565b602082019050919050565b6000602082019050818103600083015261392e816138f2565b9050919050565b600080fd5b61394382613238565b810181811067ffffffffffffffff82111715613962576139616135f2565b5b80604052505050565b6000613975612d0e565b9050613981828261393a565b919050565b600080fd5b61399481613125565b811461399f57600080fd5b50565b6000813590506139b18161398b565b92915050565b600080fd5b600080fd5b600067ffffffffffffffff8211156139dc576139db6135f2565b5b6139e582613238565b9050602081019050919050565b82818337600083830152505050565b6000613a14613a0f846139c1565b61396b565b905082815260208101848484011115613a3057613a2f6139bc565b5b613a3b8482856139f2565b509392505050565b600082601f830112613a5857613a576139b7565b5b8135613a68848260208601613a01565b91505092915050565b600067ffffffffffffffff821115613a8c57613a8b6135f2565b5b602082029050602081019050919050565b600080fd5b600060408284031215613ab857613ab7613935565b5b613ac2604061396b565b90506000613ad284828501612e26565b6000830152506020613ae684828501612fa9565b60208301525092915050565b6000613b05613b0084613a71565b61396b565b90508083825260208201905060408402830185811115613b2857613b27613a9d565b5b835b81811015613b515780613b3d8882613aa2565b845260208401935050604081019050613b2a565b5050509392505050565b600082601f830112613b7057613b6f6139b7565b5b8135613b80848260208601613af2565b91505092915050565b600060a08284031215613b9f57613b9e613935565b5b613ba960a061396b565b90506000613bb984828501613076565b6000830152506020613bcd848285016139a2565b602083015250604082013567ffffffffffffffff811115613bf157613bf0613986565b5b613bfd84828501613a43565b604083015250606082013567ffffffffffffffff811115613c2157613c20613986565b5b613c2d84828501613a43565b606083015250608082013567ffffffffffffffff811115613c5157613c50613986565b5b613c5d84828501613b5b565b60808301525092915050565b6000613c753683613b89565b9050919050565b7f496e76616c696420757365722061646472657373000000000000000000000000600082015250565b6000613cb26014836131fd565b9150613cbd82613c7c565b602082019050919050565b60006020820190508181036000830152613ce181613ca5565b9050919050565b7f496e76616c696420726563697069656e74000000000000000000000000000000600082015250565b6000613d1e6011836131fd565b9150613d2982613ce8565b602082019050919050565b60006020820190508181036000830152613d4d81613d11565b9050919050565b7f496e76616c696420616d6f756e74000000000000000000000000000000000000600082015250565b6000613d8a600e836131fd565b9150613d9582613d54565b602082019050919050565b60006020820190508181036000830152613db981613d7d565b9050919050565b7f496e73756666696369656e742062616c616e6365000000000000000000000000600082015250565b6000613df66014836131fd565b9150613e0182613dc0565b602082019050919050565b60006020820190508181036000830152613e2581613de9565b9050919050565b600081905092915050565b50565b6000613e47600083613e2c565b9150613e5282613e37565b600082019050919050565b6000613e6882613e3a565b9150819050919050565b7f455448207472616e73666572206661696c656400000000000000000000000000600082015250565b6000613ea86013836131fd565b9150613eb382613e72565b602082019050919050565b60006020820190508181036000830152613ed781613e9b565b9050919050565b6000606082019050613ef36000830186612ffe565b613f006020830185612ffe565b613f0d6040830184612e72565b949350505050565b602082016000820151613f2b60008501826136b1565b50505050565b6000602082019050613f466000830184613f15565b92915050565b6000613f5782612ddd565b9050919050565b613f6781613f4c565b8114613f7257600080fd5b50565b600081519050613f8481613f5e565b92915050565b600060208284031215613fa057613f9f612d18565b5b6000613fae84828501613f75565b91505092915050565b7f556e617574686f72697a65642073656e64657200000000000000000000000000600082015250565b6000613fed6013836131fd565b9150613ff882613fb7565b602082019050919050565b6000602082019050818103600083015261401c81613fe0565b9050919050565b600080600080600060a0868803121561403f5761403e612d18565b5b600061404d8882890161382d565b955050602061405e8882890161346d565b945050604061406f8882890161346d565b93505060606140808882890161346d565b92505060806140918882890161346d565b9150509295509295909350565b7f496e76616c6964206f726967696e616c2073656e646572000000000000000000600082015250565b60006140d46017836131fd565b91506140df8261409e565b602082019050919050565b60006020820190508181036000830152614103816140c7565b9050919050565b600061411582612e68565b915061412083612e68565b925082820390508181111561413857614137613501565b5b92915050565b60006080820190506141536000830187612e72565b6141606020830186612e72565b61416d6040830185612e72565b61417a6060830184612e72565b95945050505050565b60006040820190506141986000830185612ffe565b6141a56020830184612e72565b939250505056fea26469706673582212207653635d5e9a597f0cd4139500e2a99e181c1e38749dfd4ead568a50654af5ad64736f6c634300081c0033",
  "linkReferences": {},
  "deployedLinkReferences": {}
}