{
  "_format": "hh-sol-artifact-1",
  "contractName": "BitRWABridge",
  "sourceName": "contracts/BitRWABridge.sol",
  "abi": [
    {
      "inputs": [
        {
          "internalType": "address",
          "name": "_ccipRouter",
          "type": "address"
        },
        {
          "internalType": "uint64",
          "name": "_rootstockSelector",
          "type": "uint64"
        },
        {
          "internalType": "address",
          "name": "_ondoRWAToken",
          "type": "address"
        },
        {
          "internalType": "address",
          "name": "_priceFeed",
          "type": "address"
        },
        {
          "internalType": "address",
          "name": "_rwaHub",
          "type": "address"
        },
        {
          "internalType": "address",
          "name": "_destinationBridgeAdapter",
          "type": "address"
        },
        {
          "internalType": "address",
          "name": "initialOwner",
          "type": "address"
        }
      ],
      "stateMutability": "nonpayable",
      "type": "constructor"
    },
    {
      "inputs": [
        {
          "internalType": "address",
          "name": "owner",
          "type": "address"
        }
      ],
      "name": "OwnableInvalidOwner",
      "type": "error"
    },
    {
      "inputs": [
        {
          "internalType": "address",
          "name": "account",
          "type": "address"
        }
      ],
      "name": "OwnableUnauthorizedAccount",
      "type": "error"
    },
    {
      "inputs": [
        {
          "internalType": "address",
          "name": "token",
          "type": "address"
        }
      ],
      "name": "SafeERC20FailedOperation",
      "type": "error"
    },
    {
      "anonymous": false,
      "inputs": [
        {
          "indexed": true,
          "internalType": "address",
          "name": "user",
          "type": "address"
        },
        {
          "indexed": false,
          "internalType": "uint256",
          "name": "amount",
          "type": "uint256"
        },
        {
          "indexed": true,
          "internalType": "bytes32",
          "name": "ccipMessageId",
          "type": "bytes32"
        }
      ],
      "name": "AssetLocked",
      "type": "event"
    },
    {
      "anonymous": false,
      "inputs": [
        {
          "indexed": true,
          "internalType": "bytes32",
          "name": "ccipMessageId",
          "type": "bytes32"
        },
        {
          "indexed": true,
          "internalType": "address",
          "name": "bitmaskWallet",
          "type": "address"
        },
        {
          "indexed": false,
          "internalType": "uint256",
          "name": "mintedAmount",
          "type": "uint256"
        }
      ],
      "name": "BridgeCompleted",
      "type": "event"
    },
    {
      "anonymous": false,
      "inputs": [
        {
          "indexed": true,
          "internalType": "address",
          "name": "user",
          "type": "address"
        },
        {
          "indexed": false,
          "internalType": "bool",
          "name": "isCompliant",
          "type": "bool"
        }
      ],
      "name": "ComplianceStatusUpdated",
      "type": "event"
    },
    {
      "anonymous": false,
      "inputs": [
        {
          "indexed": true,
          "internalType": "address",
          "name": "previousOwner",
          "type": "address"
        },
        {
          "indexed": true,
          "internalType": "address",
          "name": "newOwner",
          "type": "address"
        }
      ],
      "name": "OwnershipTransferred",
      "type": "event"
    },
    {
      "anonymous": false,
      "inputs": [
        {
          "indexed": true,
          "internalType": "address",
          "name": "user",
          "type": "address"
        },
        {
          "indexed": true,
          "internalType": "address",
          "name": "bitmaskWallet",
          "type": "address"
        }
      ],
      "name": "WalletBound",
      "type": "event"
    },
    {
      "inputs": [
        {
          "internalType": "address",
          "name": "bitmaskWallet",
          "type": "address"
        }
      ],
      "name": "bindBitmaskWallet",
      "outputs": [],
      "stateMutability": "nonpayable",
      "type": "function"
    },
    {
      "inputs": [
        {
          "internalType": "address",
          "name": "",
          "type": "address"
        }
      ],
      "name": "bitmaskWalletBindings",
      "outputs": [
        {
          "internalType": "address",
          "name": "",
          "type": "address"
        }
      ],
      "stateMutability": "view",
      "type": "function"
    },
    {
      "inputs": [],
      "name": "ccipRouter",
      "outputs": [
        {
          "internalType": "contract IRouterClient",
          "name": "",
          "type": "address"
        }
      ],
      "stateMutability": "view",
      "type": "function"
    },
    {
      "inputs": [
        {
          "internalType": "bytes32",
          "name": "originalMessageId",
          "type": "bytes32"
        },
        {
          "internalType": "address",
          "name": "bitmaskWallet",
          "type": "address"
        },
        {
          "internalType": "uint256",
          "name": "mintedAmount",
          "type": "uint256"
        }
      ],
      "name": "completeBridge",
      "outputs": [],
      "stateMutability": "nonpayable",
      "type": "function"
    },
    {
      "inputs": [],
      "name": "destinationBridgeAdapter",
      "outputs": [
        {
          "internalType": "address",
          "name": "",
          "type": "address"
        }
      ],
      "stateMutability": "view",
      "type": "function"
    },
    {
      "inputs": [
        {
          "internalType": "address",
          "name": "",
          "type": "address"
        }
      ],
      "name": "isCompliant",
      "outputs": [
        {
          "internalType": "bool",
          "name": "",
          "type": "bool"
        }
      ],
      "stateMutability": "view",
      "type": "function"
    },
    {
      "inputs": [
        {
          "internalType": "uint256",
          "name": "amount",
          "type": "uint256"
        },
        {
          "internalType": "address",
          "name": "bitmaskWallet",
          "type": "address"
        }
      ],
      "name": "lockAndBridge",
      "outputs": [],
      "stateMutability": "payable",
      "type": "function"
    },
    {
      "inputs": [],
      "name": "ondoRWAToken",
      "outputs": [
        {
          "internalType": "contract IERC20",
          "name": "",
          "type": "address"
        }
      ],
      "stateMutability": "view",
      "type": "function"
    },
    {
      "inputs": [],
      "name": "owner",
      "outputs": [
        {
          "internalType": "address",
          "name": "",
          "type": "address"
        }
      ],
      "stateMutability": "view",
      "type": "function"
    },
    {
      "inputs": [],
      "name": "priceFeed",
      "outputs": [
        {
          "internalType": "contract AggregatorV3Interface",
          "name": "",
          "type": "address"
        }
      ],
      "stateMutability": "view",
      "type": "function"
    },
    {
      "inputs": [],
      "name": "renounceOwnership",
      "outputs": [],
      "stateMutability": "nonpayable",
      "type": "function"
    },
    {
      "inputs": [],
      "name": "rootstockChainSelector",
      "outputs": [
        {
          "internalType": "uint64",
          "name": "",
          "type": "uint64"
        }
      ],
      "stateMutability": "view",
      "type": "function"
    },
    {
      "inputs": [],
      "name": "rwaHub",
      "outputs": [
        {
          "internalType": "contract IRWAHub",
          "name": "",
          "type": "address"
        }
      ],
      "stateMutability": "view",
      "type": "function"
    },
    {
      "inputs": [
        {
          "internalType": "address",
          "name": "user",
          "type": "address"
        },
        {
          "internalType": "bool",
          "name": "approved",
          "type": "bool"
        }
      ],
      "name": "setCompliance",
      "outputs": [],
      "stateMutability": "nonpayable",
      "type": "function"
    },
    {
      "inputs": [
        {
          "internalType": "address",
          "name": "_rwaHub",
          "type": "address"
        }
      ],
      "name": "setRwaHub",
      "outputs": [],
      "stateMutability": "nonpayable",
      "type": "function"
    },
    {
      "inputs": [
        {
          "internalType": "address",
          "name": "newOwner",
          "type": "address"
        }
      ],
      "name": "transferOwnership",
      "outputs": [],
      "stateMutability": "nonpayable",
      "type": "function"
    }
  ],
  "bytecode": "0x61010060405234801561001157600080fd5b5060405161228338038061228383398181016040528101906100339190610363565b80600073ffffffffffffffffffffffffffffffffffffffff168173ffffffffffffffffffffffffffffffffffffffff16036100a65760006040517f1e4fbdf700000000000000000000000000000000000000000000000000000000815260040161009d9190610414565b60405180910390fd5b6100b5816101fc60201b60201c565b508673ffffffffffffffffffffffffffffffffffffffff1660808173ffffffffffffffffffffffffffffffffffffffff16815250508567ffffffffffffffff1660a08167ffffffffffffffff16815250508473ffffffffffffffffffffffffffffffffffffffff1660e08173ffffffffffffffffffffffffffffffffffffffff168152505083600160006101000a81548173ffffffffffffffffffffffffffffffffffffffff021916908373ffffffffffffffffffffffffffffffffffffffff16021790555082600260006101000a81548173ffffffffffffffffffffffffffffffffffffffff021916908373ffffffffffffffffffffffffffffffffffffffff1602179055508173ffffffffffffffffffffffffffffffffffffffff1660c08173ffffffffffffffffffffffffffffffffffffffff16815250505050505050505061042f565b60008060009054906101000a900473ffffffffffffffffffffffffffffffffffffffff169050816000806101000a81548173ffffffffffffffffffffffffffffffffffffffff021916908373ffffffffffffffffffffffffffffffffffffffff1602179055508173ffffffffffffffffffffffffffffffffffffffff168173ffffffffffffffffffffffffffffffffffffffff167f8be0079c531659141344cd1fd0a4f28419497f9722a3daafe3b4186f6b6457e060405160405180910390a35050565b600080fd5b600073ffffffffffffffffffffffffffffffffffffffff82169050919050565b60006102f0826102c5565b9050919050565b610300816102e5565b811461030b57600080fd5b50565b60008151905061031d816102f7565b92915050565b600067ffffffffffffffff82169050919050565b61034081610323565b811461034b57600080fd5b50565b60008151905061035d81610337565b92915050565b600080600080600080600060e0888a031215610382576103816102c0565b5b60006103908a828b0161030e565b97505060206103a18a828b0161034e565b96505060406103b28a828b0161030e565b95505060606103c38a828b0161030e565b94505060806103d48a828b0161030e565b93505060a06103e58a828b0161030e565b92505060c06103f68a828b0161030e565b91505092959891949750929550565b61040e816102e5565b82525050565b60006020820190506104296000830184610405565b92915050565b60805160a05160c05160e051611df16104926000396000818161058e0152610c830152600081816107600152610d1701526000818161089d015281816109a10152610d8a0152600081816103c70152818161086101526109640152611df16000f3fe6080604052600436106100f35760003560e01c80637345bfd61161008a578063a200e5d011610059578063a200e5d0146102d3578063be12ab7f14610310578063cdbc71191461034d578063f2fde38b14610376576100f3565b80637345bfd614610227578063741bef1a146102525780638da5cb5b1461027d5780639b80eafe146102a8576100f3565b806334529085116100c6578063345290851461019357806356a4b44f146101bc57806367d36930146101e7578063715018a614610210576100f3565b806302ecd1e6146100f85780630de229841461012357806313c316251461014e5780632c801d3d1461016a575b600080fd5b34801561010457600080fd5b5061010d61039f565b60405161011a919061125c565b60405180910390f35b34801561012f57600080fd5b506101386103c5565b6040516101459190611298565b60405180910390f35b6101686004803603810190610163919061132c565b6103e9565b005b34801561017657600080fd5b50610191600480360381019061018c919061136c565b610a7c565b005b34801561019f57600080fd5b506101ba60048036038101906101b5919061136c565b610b37565b005b3480156101c857600080fd5b506101d1610c81565b6040516101de91906113ba565b60405180910390f35b3480156101f357600080fd5b5061020e6004803603810190610209919061140b565b610ca5565b005b34801561021c57600080fd5b50610225610d01565b005b34801561023357600080fd5b5061023c610d15565b604051610249919061146d565b60405180910390f35b34801561025e57600080fd5b50610267610d39565b60405161027491906114a9565b60405180910390f35b34801561028957600080fd5b50610292610d5f565b60405161029f919061146d565b60405180910390f35b3480156102b457600080fd5b506102bd610d88565b6040516102ca91906114e7565b60405180910390f35b3480156102df57600080fd5b506102fa60048036038101906102f5919061136c565b610dac565b604051610307919061151d565b60405180910390f35b34801561031c57600080fd5b506103376004803603810190610332919061136c565b610dcc565b604051610344919061146d565b60405180910390f35b34801561035957600080fd5b50610374600480360381019061036f9190611564565b610dff565b005b34801561038257600080fd5b5061039d6004803603810190610398919061136c565b610eb0565b005b600260009054906101000a900473ffffffffffffffffffffffffffffffffffffffff1681565b7f000000000000000000000000000000000000000000000000000000000000000081565b33600460008273ffffffffffffffffffffffffffffffffffffffff1673ffffffffffffffffffffffffffffffffffffffff16815260200190815260200160002060009054906101000a900460ff16610476576040517f08c379a000000000000000000000000000000000000000000000000000000000815260040161046d90611601565b60405180910390fd5b8173ffffffffffffffffffffffffffffffffffffffff16600360003373ffffffffffffffffffffffffffffffffffffffff1673ffffffffffffffffffffffffffffffffffffffff16815260200190815260200160002060009054906101000a900473ffffffffffffffffffffffffffffffffffffffff1673ffffffffffffffffffffffffffffffffffffffff1614610543576040517f08c379a000000000000000000000000000000000000000000000000000000000815260040161053a9061166d565b60405180910390fd5b60008311610586576040517f08c379a000000000000000000000000000000000000000000000000000000000815260040161057d906116d9565b60405180910390fd5b6105d33330857f000000000000000000000000000000000000000000000000000000000000000073ffffffffffffffffffffffffffffffffffffffff16610f36909392919063ffffffff16565b600260009054906101000a900473ffffffffffffffffffffffffffffffffffffffff1673ffffffffffffffffffffffffffffffffffffffff1663d592d815846040518263ffffffff1660e01b815260040161062e9190611708565b600060405180830381600087803b15801561064857600080fd5b505af115801561065c573d6000803e3d6000fd5b505050506000600160009054906101000a900473ffffffffffffffffffffffffffffffffffffffff1673ffffffffffffffffffffffffffffffffffffffff1663feaf968c6040518163ffffffff1660e01b815260040160a060405180830381865afa1580156106cf573d6000803e3d6000fd5b505050506040513d601f19601f820116820180604052508101906106f391906117b0565b5050509150506000811361073c576040517f08c379a000000000000000000000000000000000000000000000000000000000815260040161073390611877565b60405180910390fd5b60006402540be4008261074f91906118c6565b905060006040518060a001604052807f000000000000000000000000000000000000000000000000000000000000000060405160200161078f919061146d565b60405160208183030381529060405281526020013387898660016040516020016107bd959493929190611908565b6040516020818303038152906040528152602001600067ffffffffffffffff8111156107ec576107eb61195b565b5b60405190808252806020026020018201604052801561082557816020015b6108126111ad565b81526020019060019003908161080a5790505b508152602001600073ffffffffffffffffffffffffffffffffffffffff16815260200160405180602001604052806000815250815250905060007f000000000000000000000000000000000000000000000000000000000000000073ffffffffffffffffffffffffffffffffffffffff166320487ded7f0000000000000000000000000000000000000000000000000000000000000000846040518363ffffffff1660e01b81526004016108da929190611ba1565b602060405180830381865afa1580156108f7573d6000803e3d6000fd5b505050506040513d601f19601f8201168201806040525081019061091b9190611bd1565b905080341015610960576040517f08c379a000000000000000000000000000000000000000000000000000000000815260040161095790611c4a565b60405180910390fd5b60007f000000000000000000000000000000000000000000000000000000000000000073ffffffffffffffffffffffffffffffffffffffff166396f4e9f9837f0000000000000000000000000000000000000000000000000000000000000000866040518463ffffffff1660e01b81526004016109de929190611ba1565b60206040518083038185885af11580156109fc573d6000803e3d6000fd5b50505050506040513d601f19601f82011682018060405250810190610a219190611c7f565b9050803373ffffffffffffffffffffffffffffffffffffffff167f1c4135ee059ffe8c577a3ab7b690ee5cd002f8e5fea13654961753022c926c438a604051610a6a9190611708565b60405180910390a35050505050505050565b610a84610fb8565b600073ffffffffffffffffffffffffffffffffffffffff168173ffffffffffffffffffffffffffffffffffffffff1603610af3576040517f08c379a0000000000000000000000000000000000000000000000000000000008152600401610aea90611cf8565b60405180910390fd5b80600260006101000a81548173ffffffffffffffffffffffffffffffffffffffff021916908373ffffffffffffffffffffffffffffffffffffffff16021790555050565b600073ffffffffffffffffffffffffffffffffffffffff168173ffffffffffffffffffffffffffffffffffffffff1603610ba6576040517f08c379a0000000000000000000000000000000000000000000000000000000008152600401610b9d90611d64565b60405180910390fd5b80600360003373ffffffffffffffffffffffffffffffffffffffff1673ffffffffffffffffffffffffffffffffffffffff16815260200190815260200160002060006101000a81548173ffffffffffffffffffffffffffffffffffffffff021916908373ffffffffffffffffffffffffffffffffffffffff1602179055508073ffffffffffffffffffffffffffffffffffffffff163373ffffffffffffffffffffffffffffffffffffffff167f974c0ff4b6f09b6d9da030703a50820a9649d9310923e7450725d3495cb0ec4d60405160405180910390a350565b7f000000000000000000000000000000000000000000000000000000000000000081565b610cad610fb8565b8173ffffffffffffffffffffffffffffffffffffffff16837f3a5e0271cd79026f0993aa13e6dd17d1f34284aa2340c1d2c33653b9a4433ee983604051610cf49190611708565b60405180910390a3505050565b610d09610fb8565b610d13600061103f565b565b7f000000000000000000000000000000000000000000000000000000000000000081565b600160009054906101000a900473ffffffffffffffffffffffffffffffffffffffff1681565b60008060009054906101000a900473ffffffffffffffffffffffffffffffffffffffff16905090565b7f000000000000000000000000000000000000000000000000000000000000000081565b60046020528060005260406000206000915054906101000a900460ff1681565b60036020528060005260406000206000915054906101000a900473ffffffffffffffffffffffffffffffffffffffff1681565b610e07610fb8565b80600460008473ffffffffffffffffffffffffffffffffffffffff1673ffffffffffffffffffffffffffffffffffffffff16815260200190815260200160002060006101000a81548160ff0219169083151502179055508173ffffffffffffffffffffffffffffffffffffffff167f909a12cd92d75bbce1196bad210933067692125b9fe9c16ea22632a8ff90fd0482604051610ea4919061151d565b60405180910390a25050565b610eb8610fb8565b600073ffffffffffffffffffffffffffffffffffffffff168173ffffffffffffffffffffffffffffffffffffffff1603610f2a5760006040517f1e4fbdf7000000000000000000000000000000000000000000000000000000008152600401610f21919061146d565b60405180910390fd5b610f338161103f565b50565b610fb2848573ffffffffffffffffffffffffffffffffffffffff166323b872dd868686604051602401610f6b93929190611d84565b604051602081830303815290604052915060e01b6020820180517bffffffffffffffffffffffffffffffffffffffffffffffffffffffff8381831617835250505050611103565b50505050565b610fc06111a5565b73ffffffffffffffffffffffffffffffffffffffff16610fde610d5f565b73ffffffffffffffffffffffffffffffffffffffff161461103d576110016111a5565b6040517f118cdaa7000000000000000000000000000000000000000000000000000000008152600401611034919061146d565b60405180910390fd5b565b60008060009054906101000a900473ffffffffffffffffffffffffffffffffffffffff169050816000806101000a81548173ffffffffffffffffffffffffffffffffffffffff021916908373ffffffffffffffffffffffffffffffffffffffff1602179055508173ffffffffffffffffffffffffffffffffffffffff168173ffffffffffffffffffffffffffffffffffffffff167f8be0079c531659141344cd1fd0a4f28419497f9722a3daafe3b4186f6b6457e060405160405180910390a35050565b600080602060008451602086016000885af180611126576040513d6000823e3d81fd5b3d92506000519150506000821461114157600181141561115d565b60008473ffffffffffffffffffffffffffffffffffffffff163b145b1561119f57836040517f5274afe7000000000000000000000000000000000000000000000000000000008152600401611196919061146d565b60405180910390fd5b50505050565b600033905090565b6040518060400160405280600073ffffffffffffffffffffffffffffffffffffffff168152602001600081525090565b600073ffffffffffffffffffffffffffffffffffffffff82169050919050565b6000819050919050565b600061122261121d611218846111dd565b6111fd565b6111dd565b9050919050565b600061123482611207565b9050919050565b600061124682611229565b9050919050565b6112568161123b565b82525050565b6000602082019050611271600083018461124d565b92915050565b600061128282611229565b9050919050565b61129281611277565b82525050565b60006020820190506112ad6000830184611289565b92915050565b600080fd5b6000819050919050565b6112cb816112b8565b81146112d657600080fd5b50565b6000813590506112e8816112c2565b92915050565b60006112f9826111dd565b9050919050565b611309816112ee565b811461131457600080fd5b50565b60008135905061132681611300565b92915050565b60008060408385031215611343576113426112b3565b5b6000611351858286016112d9565b925050602061136285828601611317565b9150509250929050565b600060208284031215611382576113816112b3565b5b600061139084828501611317565b91505092915050565b60006113a482611229565b9050919050565b6113b481611399565b82525050565b60006020820190506113cf60008301846113ab565b92915050565b6000819050919050565b6113e8816113d5565b81146113f357600080fd5b50565b600081359050611405816113df565b92915050565b600080600060608486031215611424576114236112b3565b5b6000611432868287016113f6565b935050602061144386828701611317565b9250506040611454868287016112d9565b9150509250925092565b611467816112ee565b82525050565b6000602082019050611482600083018461145e565b92915050565b600061149382611229565b9050919050565b6114a381611488565b82525050565b60006020820190506114be600083018461149a565b92915050565b600067ffffffffffffffff82169050919050565b6114e1816114c4565b82525050565b60006020820190506114fc60008301846114d8565b92915050565b60008115159050919050565b61151781611502565b82525050565b6000602082019050611532600083018461150e565b92915050565b61154181611502565b811461154c57600080fd5b50565b60008135905061155e81611538565b92915050565b6000806040838503121561157b5761157a6112b3565b5b600061158985828601611317565b925050602061159a8582860161154f565b9150509250929050565b600082825260208201905092915050565b7f55736572206e6f7420636f6d706c69616e7420284b59432f414d4c2900000000600082015250565b60006115eb601c836115a4565b91506115f6826115b5565b602082019050919050565b6000602082019050818103600083015261161a816115de565b9050919050565b7f57616c6c6574206e6f7420626f756e6400000000000000000000000000000000600082015250565b60006116576010836115a4565b915061166282611621565b602082019050919050565b600060208201905081810360008301526116868161164a565b9050919050565b7f416d6f756e74206d757374206265203e20300000000000000000000000000000600082015250565b60006116c36012836115a4565b91506116ce8261168d565b602082019050919050565b600060208201905081810360008301526116f2816116b6565b9050919050565b611702816112b8565b82525050565b600060208201905061171d60008301846116f9565b92915050565b600069ffffffffffffffffffff82169050919050565b61174281611723565b811461174d57600080fd5b50565b60008151905061175f81611739565b92915050565b6000819050919050565b61177881611765565b811461178357600080fd5b50565b6000815190506117958161176f565b92915050565b6000815190506117aa816112c2565b92915050565b600080600080600060a086880312156117cc576117cb6112b3565b5b60006117da88828901611750565b95505060206117eb88828901611786565b94505060406117fc8882890161179b565b935050606061180d8882890161179b565b925050608061181e88828901611750565b9150509295509295909350565b7f496e76616c696420707269636520666565640000000000000000000000000000600082015250565b60006118616012836115a4565b915061186c8261182b565b602082019050919050565b6000602082019050818103600083015261189081611854565b9050919050565b7f4e487b7100000000000000000000000000000000000000000000000000000000600052601160045260246000fd5b60006118d1826112b8565b91506118dc836112b8565b92508282026118ea816112b8565b9150828204841483151761190157611900611897565b5b5092915050565b600060a08201905061191d600083018861145e565b61192a602083018761145e565b61193760408301866116f9565b61194460608301856116f9565b611951608083018461150e565b9695505050505050565b7f4e487b7100000000000000000000000000000000000000000000000000000000600052604160045260246000fd5b600081519050919050565b600082825260208201905092915050565b60005b838110156119c45780820151818401526020810190506119a9565b60008484015250505050565b6000601f19601f8301169050919050565b60006119ec8261198a565b6119f68185611995565b9350611a068185602086016119a6565b611a0f816119d0565b840191505092915050565b600081519050919050565b600082825260208201905092915050565b6000819050602082019050919050565b611a4f816112ee565b82525050565b611a5e816112b8565b82525050565b604082016000820151611a7a6000850182611a46565b506020820151611a8d6020850182611a55565b50505050565b6000611a9f8383611a64565b60408301905092915050565b6000602082019050919050565b6000611ac382611a1a565b611acd8185611a25565b9350611ad883611a36565b8060005b83811015611b09578151611af08882611a93565b9750611afb83611aab565b925050600181019050611adc565b5085935050505092915050565b600060a0830160008301518482036000860152611b3382826119e1565b91505060208301518482036020860152611b4d82826119e1565b91505060408301518482036040860152611b678282611ab8565b9150506060830151611b7c6060860182611a46565b5060808301518482036080860152611b9482826119e1565b9150508091505092915050565b6000604082019050611bb660008301856114d8565b8181036020830152611bc88184611b16565b90509392505050565b600060208284031215611be757611be66112b3565b5b6000611bf58482850161179b565b91505092915050565b7f496e73756666696369656e742043434950206665650000000000000000000000600082015250565b6000611c346015836115a4565b9150611c3f82611bfe565b602082019050919050565b60006020820190508181036000830152611c6381611c27565b9050919050565b600081519050611c79816113df565b92915050565b600060208284031215611c9557611c946112b3565b5b6000611ca384828501611c6a565b91505092915050565b7f496e76616c696420525741487562000000000000000000000000000000000000600082015250565b6000611ce2600e836115a4565b9150611ced82611cac565b602082019050919050565b60006020820190508181036000830152611d1181611cd5565b9050919050565b7f496e76616c69642077616c6c6574000000000000000000000000000000000000600082015250565b6000611d4e600e836115a4565b9150611d5982611d18565b602082019050919050565b60006020820190508181036000830152611d7d81611d41565b9050919050565b6000606082019050611d99600083018661145e565b611da6602083018561145e565b611db360408301846116f9565b94935050505056fea2646970667358221220437cbe7d0c67edd84656d4cc934eb5307253433dc21519c221158aac0109dfa664736f6c634300081c0033",
  "linkReferences": {},
  "deployedLinkReferences": {}
}